:100000000A128A11FC2F00308A000408840A820731
:1000100000344634753472346B3461346E342034B9
:1000200054342E3442346134643465346D34633472
:10003000693400344734323431343034313430347C
:1000400034343034313436340034483449345A345A
:100050003A34203425343034303400344834493490
:100060005A343A342534313430343034003448345E
:1000700049345A343A342034253435343034003459
:10008000483449345A343A342034253432343534FF
:100090000034483449345A343A342034253437341F
:1000A0003534003459344F344E343A3453344134B7
:1000B0004734003459344F344E343A3453344F3487
:1000C0004C34003459344F344E343A34443455347B
:0400D0005234003472
:10081800F70077080A128A118124080001300A12A9
:100828008A110C240A128A110230F0000030F100FB
:100838000A128A114C240800F9007903031D2C2C94
:100848007808FF3E0F39803E0A128A110C240800EE
:100858007808FF3E0F39C03E0A128A110C2408009E
:1008680083129712701C3C2C8312031317163F2C0B
:100878008312031317127108F3007008F200730D46
:10088800F30CF20C730DF30CF20C720895000800CF
:10089800F301F40171087402031D542C70087302EB
:1008A80003180800C730F200592CF20B582C5C2CA6
:1008B8005D2C0130F3070318F40A0030F4074E2CBE
:1008C800FB01F91F6E2CF809F909F80A0319F90A4E
:1008D800FB01FB0A7808F0007908F100F2018E307C
:1008E800F3007B08F4000A128A1162257008F800E8
:1008F8007108F9007208FA000800F6008312031361
:100908008610061006157608F039880006110A3098
:10091800F0000030F1000A128A114C240A128A11E0
:1009280083120313061576080F39F50003300310F8
:10093800F50DFF3E031D9B2C0310750D8800061155
:100948000A30F0000030F1000A128A114C24080025
:10095800F21FBB2C7008003CF0007108031C710FDB
:10096800003CF1007208031C720F803CF200F51F76
:10097800CA2C7308003CF3007408031C740F003C75
:10098800F4007508031C750F803CF5008030F206F2
:100998008030F50675087202031D0800740871029C
:1009A800031D08007308700208000610061186105F
:1009B8000F30F0000030F1000A128A114C240A129C
:1009C8008A1183120313061502300A128A11812430
:1009D8000A128A110230F0000030F1000A128A115E
:1009E8004C240A128A1128300A128A1181240A1208
:1009F8008A1104300A128A1181240A128A110C30D1
:100A08000A128A1181240A128A110A128A111224DE
:100A18000A128A1180300A128A1181240800F6000D
:100A28000130F0000030F1000A128A114C240A1239
:100A38008A11760884000A128A1103200A128A1180
:100A4800003A0319080083120313061406157608E2
:100A580084000A128A1103200A128A11F0398800C8
:100A680006110130F0000030F1000A128A114C24FE
:100A78000A128A11831203130615760884000A12D3
:100A88008A1103200A128A110F39F5000330031066
:100A9800F50DFF3E031D4B2D0310750D8800061143
:100AA8000130F0000030F1000A128A114C240A12B9
:100AB8008A110130FF007F08F6071D2D73080319FE
:100AC8006A2D720871047004031D7D2D0030F0003A
:100AD8000030F1000030F20008000130FF007F080C
:100AE800F30701300310F20CF10CF00CFF3E031D6C
:100AF800762DFE3072050319982D712D0130FF00F7
:100B08007F08F3070130F007003003180130F107C0
:100B1800003003180130F20701300310F20CF10C19
:100B2800F00CFF3E031D912DFF3072050319AB2D0C
:100B3800822D02307302031CAD2D0130F302013007
:100B48000310F00DF10DF20DFF3E031DA42DF11F52
:100B58009D2D7318B52DFF30F0057F30F105FF305E
:100B6800F2050310F30C7308F500F601F7011030D5
:100B78000310F50DF60DF70DFF3E031DBC2D75088E
:100B8800F0047608F1047708F204740803190800E1
:100B9800F21708002008A6002108A7002208A800CC
:100BA8000310270D280DA9002908031DE22D003088
:100BB800A0000030A1000030A20008002308A60011
:100BC8002408A7002508A8000310270D280DAE004B
:100BD8002E08031DF62D0030A0000030A1000030C3
:100BE800A20008002E087B3EFF007F08A907220804
:100BF800AE002508FF007F08AE068030FF007F08A2
:100C0800AE05A117A417FF30A305FF30A4050030D7
:100C1800A5050030AA000030AB000030AC0007305A
:100C2800AD00201C252E2308AA0724080311031849
:100C3800240A031DAB07250803110318250A031D01
:100C4800AC0701300310A20CA10CA00CFF3E031D41
:100C5800262E01300310A30DA40DA50DFF3E031D84
:100C68002E2E0130AD02031D152E0930AD00201CBB
:100C78004B2E2308AA07240803110318240A031D6E
:100C8800AB07250803110318250A031DAC0701301B
:100C98000310A20CA10CA00CFF3E031D4C2E01302A
:100CA8000310AC0CAB0CAA0CFF3E031D542E0130F4
:100CB800AD02031D3B2E2A08F0002B08F1002C087A
:100CC800F2002908F3002E08F4000A128A1162259E
:100CD8007008A0007108A1007208A2000800013085
:100CE80083168500E030860087018801831285011C
:100CF800870186018801053092000F309700C030C7
:100D080083169F00113083129F00910131308316A2
:100D180092000030F000F1000A128A1134240A12FD
:100D28008A110A128A11D9240A128A110A128A11FE
:100D380012240A128A1101300A128A1113250A1282
:100D48008A11F801F80A02300A128A1120240A12BC
:100D58008A1112300A128A1113250A128A11903048
:100D6800F0000130F1000A128A114C240A128A118B
:100D78000A128A1112240A128A110530F800023068
:100D88000A128A1120240A128A115A300A128A1168
:100D980013250A128A110D30FD00FB30FC00FC0BF4
:100DA800D32EFD0BD32ED82E831203139F121F169A
:100DB8009F111F151F19DE2E1E08B00083161E086E
:100DC8008312AF009030A000A030A1003B30A200F9
:100DD8003008F9002F08F8000A128A1164240A1250
:100DE8008A117808A3007908A4007A08A5000A12D5
:100DF8008A11CE250A128A112008B1002108B200F2
:100E08002208B3000A30F0009F30F1004030F200B1
:100E18003108F3003208F4003308F5000A128A1189
:100E2800AC240A128A1103182C2FFF30F00003306B
:100E3800F1000A128A1134240A128A110530F800C6
:100E480001300A128A1120240A128A112630C22F70
:100E58000030F0007030F1004030F2003108F3004B
:100E68003208F4003308F5000A128A11AC240A1279
:100E78008A110318522FEE30F0000230F1000A12E6
:100E88008A1134240A128A110530F80001300A1236
:100E98008A1120240A128A114130C22F0030F00032
:100EA8002030F1004030F2003108F3003208F4003D
:100EB8003308F5000A128A11AC240A128A110318A1
:100EC800782F0030F0000230F1000A128A11342421
:100ED8000A128A110530F80001300A128A112024FA
:100EE8000A128A112F30C22F0030F000E030F100D2
:100EF8003F30F2003108F3003208F4003308F500FF
:100F08000A128A11AC240A128A1103189E2FFA3089
:100F1800F0000030F1000A128A1134240A128A11F2
:100F28000530F80001300A128A1120240A128A11A9
:100F38003830C22F0030F0000030F1000030F200ED
:100F48003108F3003208F4003308F5000A128A1158
:100F5800AC240A128A110318C72F0030F000F100E0
:100F68000A128A1134240A128A110530F800013055
:100F78000A128A1120240A128A111D300A128A11B3
:100F880013250A128A1183120313861FDD2F0716F1
:100F98000717871187120530F80002300A128A11E4
:100FA80020240A128A1152300A128A1113250A12B1
:100FB8008A1183120313061FF32F8715871607124A
:100FC80007130530F80002300A128A1120240A1289
:100FD8008A114A300A128A1113250A128A118312B9
:100FE8000313861ECF2E8711871207120713C12EEF
:080FF80083010A128A11732E15
:02400E00F93F78
:00000001FF
