:100000000A128A11FC2F00308A000408840A820731
:1000100000344634753472346B3461346E342034B9
:1000200054342E3442346134643465346D34633472
:10003000693400344734323431343034313430347C
:1000400034343034313436340034483449345A345A
:100050003A34203425343034303400344834493490
:100060005A343A342534313430343034003448345E
:1000700049345A343A342034253435343034003459
:10008000483449345A343A342034253432343534FF
:100090000034483449345A343A342034253437341F
:1000A0003534003459344F344E343A3453344134B7
:1000B0004734003459344F344E343A3453344F3487
:1000C0004C34003459344F344E343A34443455347B
:0400D0005234003472
:1007E400F70077080A128A116724080001300A12F8
:1007F4008A11F2230A128A110230F0000030F1004B
:100804000A128A1132240800F9007903031D122CFC
:100814007808FF3E0F39803E0A128A11F22308003D
:100824007808FF3E0F39C03E0A128A11F2230800ED
:1008340083129712701C222C831203131716252C73
:100844008312031317127108F3007008F200730D7A
:10085400F30CF20C730DF30CF20C72089500080003
:10086400F301F40171087402031D3A2C7008730239
:1008740003180800C730F2003F2CF20B3E2C422C28
:10088400432C0130F3070318F40A0030F407342C26
:10089400FB01F91F542CF809F909F80A0319F90A9C
:1008A400FB01FB0A7808F0007908F100F2018E30B0
:1008B400F3007B08F4000A128A1148257008F80036
:1008C4007108F9007208FA000800F6008312031395
:1008D4008610061006157608F039880006110A30CD
:1008E400F0000030F1000A128A1132240A128A112F
:1008F40083120313061576080F39F500033003102D
:10090400F50DFF3E031D812C0310750D88000611A3
:100914000A30F0000030F1000A128A113224080073
:10092400F21FA12C7008003CF0007108031C710F29
:10093400003CF1007208031C720F803CF200F51FAA
:10094400B02C7308003CF3007408031C740F003CC3
:10095400F4007508031C750F803CF5008030F20626
:100964008030F50675087202031D080074087102D0
:10097400031D080073087002080006100611861093
:100984000F30F0000030F1000A128A1132240A12EA
:100994008A1183120313061502300A128A1167247E
:1009A4000A128A110230F0000030F1000A128A1192
:1009B40032240A128A1128300A128A1167240A1270
:1009C4008A1104300A128A1167240A128A110C301F
:1009D4000A128A1167240A128A110A128A11F82348
:1009E4000A128A1180300A128A1167240800F6005C
:1009F4000130F0000030F1000A128A1132240A1288
:100A04008A11760884000A128A1103200A128A11B4
:100A1400003A031908008312031306140615760816
:100A240084000A128A1103200A128A11F0398800FC
:100A340006110130F0000030F1000A128A1132244C
:100A44000A128A11831203130615760884000A1207
:100A54008A1103200A128A110F39F500033003109A
:100A6400F50DFF3E031D312D0310750D8800061191
:100A74000130F0000030F1000A128A1132240A1207
:100A84008A110130FF007F08F607032D730803194C
:100A9400502D720871047004031D632D0030F000A2
:100AA4000030F1000030F20008000130FF007F0840
:100AB400F30701300310F20CF10CF00CFF3E031DA0
:100AC4005C2DFE30720503197E2D572D0130FF0079
:100AD4007F08F3070130F007003003180130F107F5
:100AE400003003180130F20701300310F20CF10C4E
:100AF400F00CFF3E031D772DFF3072050319912D75
:100B0400682D02307302031C932D0130F30201306F
:100B14000310F00DF10DF20DFF3E031D8A2DF11FA0
:100B2400832D73189B2DFF30F0057F30F105FF30C6
:100B3400F2050310F30C7308F500F601F701103009
:100B44000310F50DF60DF70DFF3E031DA22D7508DC
:100B5400F0047608F1047708F20474080319080015
:100B6400F21708002008A6002108A7002208A80000
:100B74000310270D280DA9002908031DC82D0030D6
:100B8400A0000030A1000030A20008002308A60045
:100B94002408A7002508A8000310270D280DAE007F
:100BA4002E08031DDC2D0030A0000030A100003011
:100BB400A20008002E087B3EFF007F08A907220838
:100BC400AE002508FF007F08AE068030FF007F08D6
:100BD400AE05A117A417FF30A305FF30A40500300C
:100BE400A5050030AA000030AB000030AC0007308F
:100BF400AD00201C0B2E2308AA0724080311031898
:100C0400240A031DAB07250803110318250A031D35
:100C1400AC0701300310A20CA10CA00CFF3E031D75
:100C24000C2E01300310A30DA40DA50DFF3E031DD2
:100C3400142E0130AD02031DFB2D0930AD00201C24
:100C4400312E2308AA07240803110318240A031DBC
:100C5400AB07250803110318250A031DAC0701304F
:100C64000310A20CA10CA00CFF3E031D322E013078
:100C74000310AC0CAB0CAA0CFF3E031D3A2E013042
:100C8400AD02031D212E2A08F0002B08F1002C08C8
:100C9400F2002908F3002E08F4000A128A114825EC
:100CA4007008A0007108A1007208A20008000130B9
:100CB40083168500E0308600870188018312850150
:100CC400870186018801053092000F309700C030FB
:100CD40083169F00113083129F009101FF30831609
:100CE40092000030F000F1000A128A111A240A124C
:100CF4008A110A128A11BF240A128A110A128A114D
:100D0400F8230A128A1101300A128A11F9240A12EC
:100D14008A11F801F80A02300A128A1106240A120A
:100D24008A1112300A128A11F9240A128A11903097
:100D3400F0000130F1000A128A1132240A128A11D9
:100D44000A128A11F8230A128A110530F8000230B7
:100D54000A128A1106240A128A115A300A128A11B6
:100D6400F9240A128A110D30FD00FB30FC00FC0B43
:100D7400B92EFD0BB92EBE2E831203139F121F161C
:100D84009F111F151F19C42E1E08B00083161E08BC
:100D94008312AF009030A000A030A1003B30A2002D
:100DA4003008F9002F08F8000A128A114A240A129E
:100DB4008A117808A3007908A4007A08A5000A1209
:100DC4008A11B4250A128A112008B1002108B20040
:100DD4002208B3000A30F0009F30F1004030F200E6
:100DE4003108F3003208F4003308F5000A128A11BE
:100DF40092240A128A110318172FFF30F0000330CF
:100E0400F1000A128A111A240A128A110530F80014
:100E140001300A128A1106240A128A1126300A1293
:100E24008A11F9240A128A11C72F0030F000703099
:100E3400F1004030F2003108F3003208F4003308C6
:100E4400F5000A128A1192240A128A110318422FF9
:100E5400EE30F0000230F1000A128A111A240A124C
:100E64008A110530F80001300A128A1106240A1288
:100E74008A1141300A128A11F9240A128A11C72FE1
:100E84000030F0002030F1004030F2003108F3006F
:100E94003208F4003308F5000A128A1192240A1267
:100EA4008A1103186D2F0030F0000230F1000A128D
:100EB4008A111A240A128A110530F80001300A1224
:100EC4008A1106240A128A112F300A128A11F9246F
:100ED4000A128A11C72F0030F000E030F1003F30D1
:100EE400F2003108F3003208F4003308F5000A1266
:100EF4008A1192240A128A110318982FFA30F000EA
:100F04000030F1000A128A111A240A128A110530DB
:100F1400F80001300A128A1106240A128A113830A4
:100F24000A128A11F9240A128A11C72F0030F0001C
:100F34000030F1000030F2003108F3003208F40010
:100F44003308F5000A128A1192240A128A1103182E
:100F5400C72F0030F000F1000A128A111A240A1275
:100F64008A110530F80001300A128A1106240A1287
:100F74008A111D300A128A11F9240A128A11831265
:100F84000313871187120712071383120313861F93
:100F9400DD2F07160717871187120530F800023076
:100FA4000A128A1106240A128A1152300A128A116C
:100FB400F9240A128A1183120313061FF32F8715CB
:100FC4008716071207130530F80002300A128A1137
:100FD40006240A128A114A300A128A11F9240A12C2
:100FE4008A1183120313861EB52E871187120712E6
:0C0FF4000713A72E83010A128A11592E40
:02400E00F93F78
:00000001FF
