:060000000A128A11FC2F18
:10000C00BB006E303B02031CAD280330A0000A304D
:10001C00F6006430F0003B080A168A1120270A12F9
:10002C008A110A168A1160270A128A110A168A1175
:10003C00C1260A128A11433E84000A128A150A202C
:10004C000A128A11A3000A128A150A200A128A11AE
:10005C00A4000A128A150A200A128A11A50003307C
:10006C00A0006430F6003B080A168A1160270A12B9
:10007C008A110A168A11C1260A128A115E3E840060
:10008C000A128A150A200A128A11A6000A128A1567
:10009C000A200A128A11A7000A128A150A200A12CB
:1000AC008A11A8000A128A1542240A128A112308FE
:1000BC00B8002408B9002508BA000330A0000A30A3
:1000CC00F0003B080A168A1120270A128A110A1618
:1000DC008A11C1260A128A11283E84000A128A1536
:1000EC000A200A128A11A3000A128A150A200A127F
:1000FC008A11A4000A128A150A200A128A11A50074
:10010C003808A6003908A7003A08A8000A128A1570
:10011C0042240A128A112308B5002408B6002508C7
:10012C00B7000030A3000030A4003F30A500350814
:10013C00A6003608A7003708A8000A128A15422420
:10014C002308B2002408B3002508B40008000B30C3
:10015C003B02031C18290330A0000A30F0003B08B6
:10016C000A168A1120270A128A110A168A11C12628
:10017C000A128A11283E84000A128A150A200A12D1
:10018C008A11A3000A128A150A200A128A11A400E5
:10019C000A128A150A200A128A11A5000330A0003F
:1001AC000A30F6003B080A168A1160270A128A11D7
:1001BC000A168A11C1260A128A11433E84000A12B9
:1001CC008A150A200A128A11A6000A128A150A2018
:1001DC000A128A11A7000A128A150A200A128A1119
:1001EC00A8000A128A1542240A128A112308B800A0
:1001FC002408B9002508BA000030A3000030A40080
:10020C003F30A5003808A6003908A7003A08A80016
:10021C000A128A1542242308B2002408B3002508C8
:10022C00B40008000030A3000030A4003F30A5004B
:10023C000330A0003B080A168A11C1260A128A1143
:10024C00283E84000A128A150A200A128A11A60076
:10025C000A128A150A200A128A11A7000A128A1594
:10026C000A200A128A11A8000A128A1542242308AD
:10027C00B2002408B3002508B4000800B800B81F69
:10028C00722AB809B80A3808803A123E031CF429BD
:10029C000330A0003808F200F301F21BF3036430C2
:1002AC00F0000030F1000A128A151A210A128A1184
:1002BC007108F9007008F8000A30F6000030F700F9
:1002CC000A128A1507220A128A1176080A168A114E
:1002DC00C1260A128A11433E84000A128A150A208A
:1002EC000A128A11A3000A128A150A200A128A110C
:1002FC00A4000A128A150A200A128A11A5000330DA
:10030C00A0003808F800F901F81BF9036430F60076
:10031C000030F7000A128A1507220A128A11760891
:10032C000A168A11C1260A128A115E3E84000A122C
:10033C008A150A200A128A11A6000A128A150A20A6
:10034C000A128A11A7000A128A150A200A128A11A7
:10035C00A8000A128A1542240A128A112308B50031
:10036C002408B6002508B7000330A0003808F200B6
:10037C00F301F21BF3030A30F0000030F1000A1213
:10038C008A151A210A128A1170080A168A11C126B6
:10039C000A128A11283E84000A128A150A200A12AF
:1003AC008A11A3000A128A150A200A128A11A400C3
:1003BC000A128A150A200A128A11A5003508A6000D
:1003CC003608A7003708A8000A128A154224230809
:1003DC00B2002408B3002508B40008003808803A9D
:1003EC00753E031C572A0330A0003808F200F301B5
:1003FC00F21BF3030A30F0000030F1000A128A15E8
:10040C001A210A128A1170080A168A11C1260A12B8
:10041C008A11283E84000A128A150A200A128A11AF
:10042C00A3000A128A150A200A128A11A4000A12C1
:10043C008A150A200A128A11A5000330A000380878
:10044C00F800F901F81BF9030A30F6000030F70048
:10045C000A128A1507220A128A1176080A168A11BC
:10046C00C1260A128A11433E84000A128A150A20F8
:10047C000A128A11A6000A128A150A200A128A1177
:10048C00A7000A128A150A200A128A11A8000A1259
:10049C008A1542242308B2002408B3002508B400AE
:1004AC0008000330A00038080A168A11C1260A1267
:1004BC008A11283E84000A128A150A200A128A110F
:1004CC00B2000A128A150A200A128A11B3000A1203
:1004DC008A150A20B40008003808803A123E031C22
:1004EC001D2B0330A0003808F200F301F21BF303BC
:1004FC006430F0000030F1000A128A151A210A1239
:10050C008A117108F9007008F8000A30F600003002
:10051C00F7000A128A1507220A128A1176080A169F
:10052C008A11C1260A128A111C3E84000A128A15ED
:10053C000A200A128A11A3000A128A150A200A122A
:10054C008A11A4000A128A150A200A128A11A5001F
:10055C000330A0003808F800F901F81BF9036430E7
:10056C00F6000030F7000A128A1507220A128A11C7
:10057C0076080A168A11C1260A128A11373E84009F
:10058C000A128A150A200A128A11A6000A128A1562
:10059C000A200A128A11A7000A128A150A200A12C6
:1005AC008A11A8000A128A1542240A128A112308F9
:1005BC00B5002408B6002508B7000330A0003808A1
:1005CC00F200F301F21BF3030A30F0000030F100EB
:1005DC000A128A151A210A128A1170080A168A112F
:1005EC00C1260A128A11013E84000A128A150A20B9
:1005FC000A128A11A3000A128A150A200A128A11F9
:10060C00A4000A128A150A200A128A11A5003508BC
:10061C00A6003608A7003708A8000A128A1542243B
:10062C002308B2002408B3002508B40008003808D9
:10063C00803A753E031C802B0330A0003808F20072
:10064C00F301F21BF3030A30F0000030F1000A1240
:10065C008A151A210A128A1170080A168A11C126E3
:10066C000A128A11013E84000A128A150A200A1203
:10067C008A11A3000A128A150A200A128A11A400F0
:10068C000A128A150A200A128A11A5000330A0004A
:10069C003808F800F901F81BF9030A30F6000030AD
:1006AC00F7000A128A1507220A128A1176080A160E
:1006BC008A11C1260A128A111C3E84000A128A155C
:1006CC000A200A128A11A6000A128A150A200A1296
:1006DC008A11A7000A128A150A200A128A11A80088
:1006EC000A128A1542242308B2002408B3002508F4
:1006FC00B40008000330A00038080A168A11C1267D
:10070C000A128A11013E84000A128A150A200A1262
:10071C008A11B2000A128A150A200A128A11B30031
:10072C000A128A150A20B4000800E8004F30DB00DA
:10073C000130CE07FF304E0784000A128A150A20BA
:10074C000A128A11EE006E080319F72F25306E0677
:10075C000319B42B680884006E08F02FDC01DD014E
:10076C004E0884000A128A150A200A128A112E3A9F
:10077C00031DFE2B5D170130FF007F08CE07E9013A
:10078C00EA014E0884000A128A150A200A128A11FC
:10079C000A168A11B3260A128A11031C042C0A3079
:1007AC00F0000030F1006A08F3006908F2000A1644
:1007BC008A113F270A128A117108EA007008E900B1
:1007CC004E0884000A128A150A200A128A11D03E99
:1007DC00D200FF3003180030D3005208E907031889
:1007EC00EA0A5308EA070130FF007F08CE07C72B3F
:1007FC00E901EA015D16042C5D15162C0130CE07BB
:10080C00FF304E0784000A128A150A200A128A1138
:10081C00EE00003A0319F72F663A0319022C9E2BAF
:10082C0000305C05D20007305D05D300520853043C
:10083C000319C12F5D1E262C0630E9000030EA009A
:10084C005B08840083130008EB00840A0008EC00AA
:10085C00840A0008ED000330FF007F08DB076B08FB
:10086C00F0006C08F1006D08F2000030F30000306D
:10087C00F4000030F5000A168A11D3270A128A11E7
:10088C0003185D2C6B08F0006C08F1006D08F20089
:10089C000A168A119D260A128A117008EB0071083B
:1008AC00EC007208ED000330DC040030DD04E201E2
:1008BC00E3016D086C046B0403190F2D6B3084007D
:1008CC0083130008D200840A0008D300840A0008AD
:1008DC00D400840A0008D5000F300310D50CD40CBA
:1008EC00D30CD20CFF3E031D732CFF305205D600E7
:1008FC0000305305D7005608823EE2005708031813
:10090C00013EFF3EE300FF30E2070318E30AFF302D
:10091C00E3070330F0000030F1006308F3006208D5
:10092C00F2000A168A113F270A128A117108E30095
:10093C007008E2000A30F6000030F7006308F90096
:10094C006208F8000A128A1507220A128A1177081F
:10095C00E3007608E200E31FB92CFF30E20703182E
:10096C00E30AFF30E3076203FF3A0A128A114421BB
:10097C000A128A113208E4003308E5003408E60054
:10098C006B08A3006C08A4006D08A5006408A60001
:10099C006508A7006608A8000A128A1542240A12E4
:1009AC008A112308E4002408E5002508E600640801
:1009BC00F0006508F1006608F2000030F3008030AA
:1009CC00F4003F30F5000A168A11D3270A128A1157
:1009DC000318F62CFF30E2070318E30AFF300E2D44
:1009EC006408F0006508F1006608F2000030F300BE
:1009FC002030F4004130F5000A168A11D3270A1270
:100A0C008A11031C0F2D0130E2070318E30A003092
:100A1C00E3076A08803AFF0080307F02031D182D1F
:100A2C000D3069020318392D8312031369080A1259
:100A3C008A1106200A128A113208BC003308BD0044
:100A4C003408BE006B08BF006C08C0006D08C10004
:100A5C000A128A15E8240A128A113C08EB003D0898
:100A6C00EC003E08ED00831203136308803AFF008C
:100A7C0080307F02031D442D0A3062020318692D59
:100A8C00831203136D086C046B040319B22D6B08ED
:100A9C00B9006C08BA006D08BB000A128A152A232B
:100AAC000A128A113C083B043A043904031DB22D86
:100ABC006308803AFF0080307F02031D672D0230EF
:100ACC006202031CB22D831203136408F000650844
:100ADC00F1006608F2007030F3008930F400403009
:100AEC00F5000A168A11D3270A128A110318802DD1
:100AFC00F730812DF830E2070318E30AFF30E307E3
:100B0C0062080A128A1144210A128A113208E4007E
:100B1C003308E5003408E6006B08F0006C08F100BF
:100B2C006D08F2006408F3006508F4006608F5002F
:100B3C000A128A15A1230A128A117308E10072089D
:100B4C00E0007108DF007008DE000030EB000030C0
:100B5C00EC000030ED00EE2D831203136B08B9008E
:100B6C006C08BA006D08BB000A128A152A230A12F7
:100B7C008A113C08E1003B08E0003A08DF00390824
:100B8C00DE006108FB006008FA005F08F9005E08EF
:100B9C00F8000A168A1181270A128A117808831222
:100BAC00C8007908C9007A08CA006B08CB006C0829
:100BBC00CC006D08CD000A168A1103270A128A117F
:100BCC004808EB004908EC004A08ED00E201E3019B
:100BDC00EE01EE0A6E08D20001300310D20DFF3E7A
:100BEC00031DF32D0310520D4F3E84000A128A157B
:100BFC000A200A128A11D3000A128A150A200A1234
:100C0C008A11D4000A128A150A200A128A11D500F8
:100C1C000A128A150A200A128A11D6005608610295
:100C2C00031D222E55086002031D222E54085F025C
:100C3C00031D222E53085E02031C2C2E0130FF00D4
:100C4C007F08EE070A306E06031DF02D5C08033991
:100C5C000319392E680884002D308313800001306D
:100C6C00FF007F08E8070130EE026E0A0319AA2E76
:100C7C006E08D20001300310D20DFF3E031D412E31
:100C8C000310520D4F3E84000A128A150A200A12D4
:100C9C008A11F0000A128A150A200A128A11F10030
:100CAC000A128A150A200A128A11F2000A128A15EF
:100CBC000A200A128A11F3006108F7006008F60096
:100CCC005F08F5005E08F4000A128A1560220A1209
:100CDC008A117308E7007208E6007108E5007008D5
:100CEC00E4000030F3000030F2000030F1000A3074
:100CFC00F0006708F7006608F6006508F500640860
:100D0C00F4000A128A1565210A128A117308E70089
:100D1C007208E6007108E5007008E40068088400B9
:100D2C006408303E332E831203136808840030307D
:100D3C00831380000130FF007F08E807FF30E207D3
:100D4C000318E30AFF30E3076308803AFF008030A2
:100D5C007F02031DB32E013062020318992E8312F9
:100D6C0003136A08803AFF0080307F02031DC02EF7
:100D7C0009306902031CC62E083083120313C92ED6
:100D8C00831203136908EE006E08D200D3015208D7
:100D9C00E9025308031CEA03EA026E080319DF2E6A
:100DAC00680884002E30831380000130FF007F0818
:100DBC00E8076E080A128A1144210A128A113208B5
:100DCC00D8003308D9003408DA005808A6005908AE
:100DDC00A7005A08A8006B08A3006C08A4006D08B3
:100DEC00A5000A128A1542240A128A112308B90096
:100DFC002408BA002508BB000A128A152A230A12F5
:100E0C008A113C08E1003B08E0003A08DF00390891
:100E1C00DE000130EE026E0A0319BC2F6E08D20000
:100E2C0001300310D20DFF3E031D172F0310520D7E
:100E3C004F3E84000A128A150A200A128A11F00009
:100E4C000A128A150A200A128A11F1000A128A154E
:100E5C000A200A128A11F2000A128A150A200A12B2
:100E6C008A11F3006108F7006008F6005F08F500CE
:100E7C005E08F4000A128A1560220A128A1173089D
:100E8C00E7007208E6007108E5007008E400003025
:100E9C00F3000030F2000030F1000A30F000670877
:100EAC00F7006608F6006508F5006408F4000A12FD
:100EBC008A1565210A128A117308E7007208E60088
:100ECC007108E5007008E400680884006408303E8E
:100EDC00831380000130FF007F08E8076E08D20002
:100EEC0001300310D20DFF3E031D772F0310520D5E
:100EFC004F3E84000A128A150A200A128A11F00049
:100F0C000A128A150A200A128A11F1000A128A158D
:100F1C000A200A128A11F2000A128A150A200A12F1
:100F2C008A11F3006108F7006008F6005F08F5000D
:100F3C005E08F4000A128A1565210A128A117308D8
:100F4C00E1007208E0007108DF0070080E2F6808DD
:100F5C0084003030831380000130FF007F08E807E5
:100F6C00FF30E9070318EA0AFF30EA0769086A0448
:100F7C0003199E2BAD2F69086A04031DD12F61083C
:100F8C0060045F045E04031DD12F0130E9070318D0
:100F9C00EA0A0030EA076A08803A803C031DD82F21
:100FAC0069086E02031CE72F831203136A08803A48
:100FBC00D20080305202031DE52F6E086902031C1B
:100FCC00E72F831203135C08033903199E2B68085F
:100FDC0084002D30831380000130FF007F08E80768
:100FEC009E2B6808840083138001080083010A1279
:100FFC008A15E42DFF1B0A2883137F18831700081A
:10100C00840A0319FF0A080008308A000408840ABD
:10101C0082070034003480343F34003420344134AF
:10102C000034C834423400347A34443440341C34F0
:10103C0046345034C33447342434743449349734EC
:10104C0018344B34BC34BE344C346B346E344E34A4
:10105C000334153450347934AD346034F3344934BA
:10106C007134003480343F34CD34CC343D34D734F7
:10107C0023343C34123483343A34B734D1343834D6
:10108C00C63427343734383486343534C034D63407
:10109C003334CC342B343234703489343034E73438
:1010AC00DB342E34E5343C341E344234A2340D345B
:1010BC0001340034003400340A3400340034003479
:1010CC006434003400340034E83403340034003425
:1010DC001034273400340034A03486340134003406
:1010EC00403442340F340034803496349834003415
:1010FC000034E134F53405340034CA349A343B34CA
:10110C004634753472346B3461346E342034543458
:10111C002E3442346134643465346D346334693450
:10112C0000344734323431343034313430343434A4
:10113C00303431343634003459344F344E343A343C
:10114C00533441344734003459344F344E343A34E8
:10115C0053344F344C34003459344F344E343A34C5
:10116C004434553452340034483449345A343A34C3
:0C117C00003425342E3432346634003444
:10118E00F301F40171087402031DCF287008730275
:10119E0003180800C730F200D428F20BD328D72842
:1011AE00D8280130F3070318F40A0030F407C928D1
:1011BE0083120610061186100F30F0000030F10079
:1011CE000A128A15C7200A128A15831203130615EE
:1011DE0002300A168A11A8270A128A150230F00068
:1011EE000030F1000A128A15C7200A128A1528301B
:1011FE000A168A11A8270A128A1504300A168A11AD
:10120E00A8270A128A150C300A168A11A8270A1264
:10121E008A150A168A11A5260A128A1580300A1610
:10122E008A11A8270800F501F31F2429F209F309F2
:10123E00F20A0319F30AF501F50AF11F2B29F00939
:10124E00F109F00A0319F10A7008710403195829FB
:10125E00F401F40AF11B3F2901300310F00DF10DDA
:10126E00FF3E031D34290130FF007F08F4073129AA
:10127E0071087302031D452970087202031C4D2963
:10128E007008F2027108031CF303F302013003101D
:10129E00F10CF00CFF3E031D4E290130F402031D2C
:1012AE003F29750803196029F209F309F20A031997
:1012BE00F30A7308F1007208F00008007308720454
:1012CE00710470040319A829F901F90AF31B7D2989
:1012DE000130F8000310F00DF10DF20DF30DF80BC7
:1012EE0071290130FF007F08F9076D297308770215
:1012FE00031D8B2972087602031D8B297108750256
:10130E00031D8B2970087402031C9B297008F402BC
:10131E007108031C710FF5027208031C720FF6029E
:10132E007308031C730FF70201300310F30CF20C59
:10133E00F10CF00CFF3E031D9C290130F902031D38
:10134E007D297708F3007608F2007508F10074081D
:10135E00F00008000130F0000030F1000A128A158A
:10136E00C7200A128A15760883120313FF00750828
:10137E0084000A128A1500200A128A15003A0319EF
:10138E000800061406157608FF00750884000A1278
:10139E008A1500200A128A15F039880006110130CC
:1013AE00F0000030F1000A128A15C7200A128A15C1
:1013BE008312031306157608FF00750884000A12BF
:1013CE008A1500200A128A150F39F7000330031010
:1013DE00F70DFF3E031DEE290310770D8800061151
:1013EE000130F0000030F1000A128A15C7200A12EF
:1013FE008A150130F5070318F60A0030F607BA29E8
:10140E00FB01F71F112AF609F709F60A0319F70A65
:10141E00FB01FB0AF91F1C2AF809F909F80A03193E
:10142E00F90A0130FF007F08FB06FC01FD0176087A
:10143E0077040319532AFA01FA0AF71B322A0130EC
:10144E000310F60DF70DFF3E031D272A0130FF0096
:10145E007F08FA07242A01300310FC0DFD0DFF3E14
:10146E00031D332A77087902031D3F2A7608780276
:10147E00031C482A7608F8027708031CF903F902C0
:10148E007C1401300310F70CF60CFF3E031D492AA5
:10149E000130FA02031D322A7B0803195B2AFC096C
:1014AE00FD09FC0A0319FD0A7D08F7007C08F60009
:1014BE0008000030FC000030FB000030FA00003065
:1014CE00F90073087204710470040319B52AFD0142
:1014DE00FD0AF31B802A0130F8000310F00DF10D08
:1014EE00F20DF30DF80B742A0130FF007F08FD0793
:1014FE00702A0130F8000310F90DFA0DFB0DFC0DEA
:10150E00F80B822A73087702031D972A7208760257
:10151E00031D972A71087502031D972A700874021D
:10152E00031CA82A7008F4027108031C710FF5023F
:10153E007208031C720FF6027308031C730FF70276
:10154E00791401300310F30CF20CF10CF00CFF3E89
:10155E00031DA92A0130FD02031D802A7C08F30019
:10156E007B08F2007A08F1007908F0000800730891
:10157E000319C62A720871047004031DD92A00309B
:10158E00F0000030F1000030F20008000130FF00E2
:10159E007F08F30701300310F20CF10CF00CFF3E44
:1015AE00031DD22AFE3072050319F42ACD2A01300A
:1015BE00FF007F08F3070130F007003003180130F9
:1015CE00F107003003180130F20701300310F20C5E
:1015DE00F10CF00CFF3E031DED2AFF3072050319CE
:1015EE00072BDE2A02307302031C092B0130F30293
:1015FE0001300310F00DF10DF20DFF3E031D002B17
:10160E00F11FF92A7318112BFF30F0057F30F10509
:10161E00FF30F2050310F30C7308F500F601F70125
:10162E0010300310F50DF60DF70DFF3E031D182BB0
:10163E007508F0047608F1047708F20474080319AB
:10164E000800F21708003908BD003A08BE003B0832
:10165E00BF0003103E0D3F0DC5004508031D402B76
:10166E000030BC000030BB000030BA000030B900C2
:10167E0008003908BD003A08BE003B08BF0017300D
:10168E000310BF0CBE0CBD0CFF3E031D472B3D08C7
:10169E00C000BA17FF30B905FF30BA050030BB05E0
:1016AE003908C1003A08C2003B08C300C4018E309D
:1016BE00C502C51F772B4508803A8F3E031C372B7A
:1016CE0001300310C40CC30CC20CC10CFF3E031D31
:1016DE00682B0130FF007F08C50703198A2B672B83
:1016EE00183045020318372B450803198A2B013091
:1016FE00BD000310C10DC20DC30DC40DBD0B802B5B
:10170E000130C5027B2B40080319982BC109C20971
:10171E00C309C409C10A0319C20A0319C30A03196A
:10172E00C40A4408BC004308BB004208BA00410882
:10173E00B90008007008F6007108F7007208F8008A
:10174E000310770D780DA5002508031DB72B00306B
:10175E00F3000030F2000030F1000030F00008001D
:10176E007308F6007408F7007508F8000310770D7B
:10177E00780DA40024080319AE2BF117FF30F005E5
:10178E00FF30F1050030F205F417FF30F305FF309E
:10179E00F4050030F5050030A3000030A200003043
:1017AE00A1000030A0007F30A50298302407F6007B
:1017BE007608A5021830A4000130F6000310A00D23
:1017CE00A10DA20DA30DF60BE52B75087202031DDC
:1017DE00F62B74087102031DF62B73087002031C9E
:1017EE00032C7308F0027408031C740FF1027508C1
:1017FE00031C750AF202201401300310F00DF10DD6
:10180E00F20DFF3E031D042C0130A402031DE32B39
:10181E00A51F262C2508803A973E031CAE2B0130BF
:10182E000310A30CA20CA10CA00CFF3E031D172C41
:10183E000130FF007F08A5070319392C162C18302C
:10184E0025020318AE2B25080319392C0130F6009A
:10185E000310A00DA10DA20DA30DF60B2F2C013020
:10186E00A5022A2C2308F3002208F2002108F10019
:10187E002008F00008002308A9002408AA00250863
:10188E00AB0003102A0D2B0DAC002C08031D562C9B
:10189E000030A3000030A4000030A5000800260888
:1018AE00A9002708AA002808AB0003102A0D2B0D4B
:1018BE00B1003108031D6A2C0030A3000030A400D3
:1018CE000030A500080031087B3EFF007F08AC0702
:1018DE002508B1002808FF007F08B1068030FF0000
:1018EE007F08B105A417A717FF30A605FF30A7057F
:1018FE000030A8050030AD000030AE000030AF0063
:10190E000730B000231C992C2608AD0727080311B9
:10191E000318270A031DAE07280803110318280A07
:10192E00031DAF0701300310A50CA40CA30CFF3E42
:10193E00031D9A2C01300310A60DA70DA80DFF3E16
:10194E00031DA22C0130B002031D892C0930B000FA
:10195E00231CBF2C2608AD07270803110318270ADE
:10196E00031DAE07280803110318280A031DAF072D
:10197E0001300310A50CA40CA30CFF3E031DC02CBC
:10198E0001300310AF0CAE0CAD0CFF3E031DC82C86
:10199E000130B002031DAF2C2D08F0002E08F1000F
:1019AE002F08F2002C08F3003108F4000A128A15F1
:1019BE00BE2270088312A3007108A4007208A5004D
:1019CE0008003C08C2003D08C3003E08C4000310D6
:1019DE00430D440DC7003F08C2004008C300410834
:1019EE00C4000310430D440DC600470803190B2D08
:1019FE00460847020318122D4608C2004708C202C5
:101A0E0019304202031C122D3F08BC004008BD00D5
:101A1E004108BE00080046080319080047084602A0
:101A2E000318212D4708C2004608C202193042028F
:101A3E00031808000630C500BE1BC517C11B45178D
:101A4E00BD17FF30BC05FF30BD050030BE05C01709
:101A5E00FF30BF05FF30C0050030C1054608470204
:101A6E0003185F2D01300310BF0DC00DC10DFF3ED9
:101A7E00031D3A2D0130C6024608470603195A2D9A
:101A8E000130C5024508073903195A2D392D013089
:101A9E000310BE0CBD0CBC0CFF3E031D4F2D0130C0
:101AAE00FF007F08C707470846060319882D4E2DED
:101ABE00470846020318882D01300310BC0DBD0DDA
:101ACE00BE0DFF3E031D642D0130C70246084706BA
:101ADE000319842D0130C502450807390319842DD9
:101AEE00632D01300310C10CC00CBF0CFF3E031D53
:101AFE00792D0130FF007F08C60747084606031DF3
:101B0E00782DC51F9A2DFF30BC06FF30BD06FF3065
:101B1E00BE060130BC07003003180130BD0700308F
:101B2E0003180130BE07451FAC2DFF30BF06FF3036
:101B3E00C006FF30C1060130BF0700300318013068
:101B4E00C007003003180130C107C5013C08BF07AC
:101B5E003D08031103183D0A031DC0073E0803117B
:101B6E0003183E0A031DC107C11FCF2DFF30BF064C
:101B7E00FF30C006FF30C1060130BF07003003182A
:101B8E000130C007003003180130C107C501C50A76
:101B9E003F08F0004008F1004108F2004708F3004A
:101BAE004508F4000A128A15BE2270088312BC0082
:101BBE007108BD007208BE00080001308316850052
:101BCE00E030860087018801831285018701860136
:101BDE008801053092000F309700C03083169F00A9
:101BEE00113083129F0091013130831692000A1238
:101BFE008A15DF200A128A150A168A11A5260A12DC
:101C0E008A157730F5008030F6000A128A15B12158
:101C1E000A128A15F801F80A02300A168A11D2261B
:101C2E000A128A158830F5008030F6000A128A15DD
:101C3E00B1210A128A15E830F0000330F1000A12C1
:101C4E008A15C7200A128A150A168A11A5260A12A3
:101C5E008A1583120313861F492E0716071787113D
:101C6E0087120530F80002300A168A11D2260A129F
:101C7E008A159B30F5008030F6000A128A15B121C4
:101C8E000A128A15061F602E87158716071207136C
:101C9E000530F80002300A168A11D2260A128A1569
:101CAE009330F5008030F6000A128A15B1210A121F
:101CBE008A15861E772E8711871207120713053095
:101CCE00F80002300A168A11D2260A128A15A3309B
:101CDE00F5008030F6000A128A15B1210A128A1513
:101CEE00823083160313A100DD30A000A00B7D2EE1
:101CFE00A10B7D2E831203139F121F169F111F150A
:101D0E001F19872E1E088316B0001E08AF0049301B
:101D1E008312A3009D30A4003B30A500831630082B
:101D2E00F9002F08F8000A168A11E6260A128A15FB
:101D3E0078088312A6007908A7007A08A8000A126C
:101D4E008A1542240A128A1523088316AC008312C0
:101D5E0024088316AD00831225088316AE00B0301A
:101D6E008312CE0083162C088312CF0083162D0803
:101D7E008312D00083162E088312D100A2300A12CD
:101D8E008A119B230A128A150530F80001300A16B3
:101D9E008A11D2260A128A15AB30F5008030F60071
:101DAE000A128A15B1210A128A150930F80001307B
:101DBE000A168A11D2260A128A15A230F5000030B0
:101DCE00F6000A128A15B1210A128A15302E7030C9
:101DDE0084000008F600840A0008F700840A000850
:101DEE00F800840A0008F9000310780D790D8312AB
:101DFE000313A5002508031D0D2F0030F30000303E
:101E0E00F2000030F1000030F00008007330840062
:101E1E000008F600840A0008F700840A0008F8009B
:101E2E00840A0008F9000310780D790DA400240827
:101E3E000319042F7030840000308004840A0030AF
:101E4E008004840A80308004840A0030800470305C
:101E5E008400FF308005840AFF308005840AFF303D
:101E6E008005840A003080057330840000308004C1
:101E7E00840A00308004840A80308004840A003092
:101E8E00800473308400FF308005840AFF308005A3
:101E9E00840AFF308005840A003080050030A300DC
:101EAE000030A2000030A1000030A0007F30A5025B
:101EBE00A0302407F6007608A5022030A4000130D9
:101ECE00F6000310A00DA10DA20DA30DF60B682FA9
:101EDE00733084000008F600840A0008F700840AB4
:101EEE000008F800840A0008F90070308400000829
:101EFE00FA00840A0008FB00840A0008FC00840A29
:101F0E000008FD0079087D02031D972F78087C02DA
:101F1E00031D972F77087B02031D972F76087A02F1
:101F2E00031CBC2F733084000008F600840A0008DE
:101F3E00F700840A0008F800840A0008F9007030DF
:101F4E00840076088002840A7708031C770F8002CB
:101F5E00840A7808031C780F8002840A7908031C0F
:101F6E00790A80020330840220147030840003103A
:101F7E00800D840A800D840A800D840A800D8403EE
:101F8E00840384030130A402031D662FA51FE42FD2
:101F9E002508803A9F3E031C042F01300310A30C2A
:101FAE00A20CA10CA00CFF3E031DD52F0130FF008B
:101FBE007F08A5070319F72FD42F20302502031809
:101FCE00042F25080319F72F0130F6000310A00D7A
:101FDE00A10DA20DA30DF60BED2F0130A502E82FDA
:101FEE002308F3002208F2002108F1002008F00077
:021FFE000800D9
:102D2E00F70077080A168A11A8270800720871049E
:102D3E007004031908008030F206080001300A16EC
:102D4E008A1197260A168A110230F0000030F1001F
:102D5E000A128A15C7200800F100F0013A307102FC
:102D6E000318BF2E30307102031CBF2EF001F00A83
:102D7E00700C0800A200A101221CC92E2008FF0021
:102D8E007F08A1070310A00D0310A20C2208031D3B
:102D9E00C32E21080800F9007903031DDE2E7808E2
:102DAE00FF3E0F39803E0A168A11972608007808D2
:102DBE00FF3E0F39C03E0A168A1197260800FB0106
:102DCE00F91FF02EF809F909F80A0319F90AFB019F
:102DDE00FB0A7808F0007908F100F2018E30F3005A
:102DEE007B08F4000A128A15BE227008F8007108DA
:102DFE00F9007208FA0008004A0849044804031949
:102E0E000A2F8030CA064B08BC004C08BD004D0886
:102E1E00BE004808BF004908C0004A08C1000A1297
:102E2E008A15E8243C08C8003D08C9003E08CA00BF
:102E3E000800F3000830F400F5017308F1000730C4
:102E4E000310F10CFF3E031D272F7508F2007207C9
:102E5E007104F5000310F30D70087502031C392F71
:102E6E007008F5020130F402031D242F75080800C6
:102E7E00F401F501701C492F7208F4070318F50AC6
:102E8E007308F50701300310F20DF30DFF3E031D1D
:102E9E004A2F01300310F10CF00CFF3E031D512F91
:102EAE0070087104031D412F7508F1007408F000BD
:102EBE000800F700F901760803197F2FF801F80AC8
:102ECE00F61B702F0310F60D0130FF007F08F80778
:102EDE00672F0310F90D76087702031C7A2F7608F8
:102EEE00F70279140310F60C0130F802031D702F4F
:102EFE00790808008E30FC00FF307B050319952FF2
:102F0E0001300310FB0CFA0CF90CF80CFF3E031DFC
:102F1E00882F0130FF007F08FC07832F7808F00010
:102F2E007908F1007A08F2007C08F300F4010A1225
:102F3E008A15BE227008F8007108F9007208FA00AE
:102F4E000800F60083120313861006100615760885
:102F5E00F039880006110A30F0000030F1000A1234
:102F6E008A15C7200A168A118312031306157608CE
:102F7E000F39F50003300310F50DFF3E031DC22F70
:102F8E000310750D880006110A30F0000030F100B4
:102F9E000A128A15C7200800F21FE22F7008003CA3
:102FAE00F0007108031C710F003CF1007208031C45
:102FBE00720F803CF200F51FF12F7308003CF300F6
:102FCE007408031C740F003CF4007508031C750F85
:102FDE00803CF5008030F2068030F50675087202EE
:102FEE00031D080074087102031D080073087002A7
:022FFE000800C9
:02400E00F93F78
:00000001FF
