:100000000A128A11FC2F00308A000408840A820731
:1000100000344634753472346B3461346E342034B9
:1000200054342E3442346134643465346D34633472
:100030006934003441344434433420344434453446
:10004000473445345234493420343A340034473448
:100050003234313430343134303434343034313477
:1000600036340034533461346734003453346F34DD
:040070006C340034B8
:100C3C00F500750888000614861006150A30F000B9
:100C4C000030F1000A128A11422683120313061196
:100C5C000800F5007508831203138800061086102F
:100C6C0006150A30F0000030F1000A128A114226F3
:100C7C008312031306110800F301F4017408803A7F
:100C8C00F2007108803A7202031D4E2E7008730236
:100C9C0003180800C730F200532EF20B522E562EBA
:100CAC00572E0130F3070318F40A0030F407442ED2
:100CBC00F600760884000A128A1103200A128A119F
:100CCC00003A03190800760884000A128A110320DE
:100CDC000A128A110A128A111E260A128A1101306E
:100CEC00FF007F08F6075F2E38300A128A112F2674
:100CFC000A128A110C300A128A112F260A128A1132
:100D0C0006300A128A112F260A128A1180300A1212
:100D1C008A112F260A128A1101300A128A112F26E3
:100D2C000800770878040319C42EFB01FB0AF81B92
:100D3C00AB2E01300310F70DF80DFF3E031DA02E56
:100D4C000130FF007F08FB079D2E78087A02031DF7
:100D5C00B12E77087902031CB92E7708F9027808AE
:100D6C00031CFA03FA0201300310F80CF70CFF3ED7
:100D7C00031DBA2E0130FB02031DAB2E7A08F800BE
:100D8C007908F700080083168601880105140A12F9
:100D9C008A117A260A128A1101300A128A115E26E9
:100DAC000A128A11C0300A128A112F260A128A11CD
:100DBC001F300A128A115E260A128A11B830F0000E
:100DCC000B30F1000A128A1142260A128A110A12F9
:100DDC008A117A260A128A1112300A128A115E2698
:100DEC000A128A118C300A128A112F260A128A11C1
:100DFC000A128A1140270A128A11F82EF401F50101
:100E0C007008710403193B2FF601F60AF11B1A2F17
:100E1C0001300310F00DF10DFF3E031D0F2F0130BB
:100E2C00FF007F08F6070C2F01300310F40DF50DB1
:100E3C00FF3E031D1B2F71087302031D272F700823
:100E4C007202031C302F7008F2027108031CF303AA
:100E5C00F302741401300310F10CF00CFF3E031D6F
:100E6C00312F0130F602031D1A2F7508F10074089A
:100E7C00F0000800C03083169F00853083129F005D
:100E8C001F19462F1E08A10083161E088312A000EE
:100E9C000330F0000030F1002108F3002008F200CC
:100EAC000A128A1104270A128A117008FF3EA00048
:100EBC0071080318013EFF3EA100E830F00003303A
:100ECC00F1002108F3002008F2000A128A1104270D
:100EDC000A128A117008303E0A128A111E260A1252
:100EEC008A110A30F7000030F8006430F00000304E
:100EFC00F1002108F3002008F2000A128A110427DD
:100F0C000A128A117108FA007008F9000A128A1183
:100F1C0097260A128A117708303E0A128A111E2669
:100F2C000A128A110A30F7000030F8000A30F0007B
:100F3C000030F1002108F3002008F2000A128A1197
:100F4C0004270A128A117108FA007008F9000A12B3
:100F5C008A1197260A128A117708303E0A128A11D2
:100F6C001E260A128A110A30F7000030F8002108F8
:100F7C00FA002008F9000A128A1197260A128A111F
:100F8C007708303E0A128A111E260A128A11C030C6
:100F9C000A128A112F260A128A11851CE62F2A3072
:100FAC000A128A115E260A128A118518DB2F8230EA
:100FBC00FD00DD30FC00FC0BE12FFD0BE12FE62FDB
:100FCC0083120313051D08002E300A128A115E26A7
:100FDC000A128A110519F02F8230FD00DD30FC0059
:100FEC00FC0BF62FFD0BF62FFB2F080083010A12CA
:040FFC008A11C92E5F
:02400E007A3FF7
:00000001FF
