:100000000A128A11FC2F00308A000408840A820731
:1000100000340034A0343B344634753472346B34CD
:1000200061346E34203454342E34423461346434B8
:1000300065346D34633469340034473432343134D8
:1000400030343134303434343034313436340034B4
:1000500059344F344E343A345334413447340034F5
:1000600059344F344E343A3453344F344C340034D2
:0A007000483449345A343A3400345D
:10072800F70077080A128A111424080001300A1207
:100738008A1194230A128A110230F0000030F10065
:100748000A128A11BC230800F9007903031DB42B8F
:100758007808FF3E0F39803E0A128A119423080058
:100768007808FF3E0F39C03E0A128A119423080008
:10077800F301F40171087402031DC42B700873029D
:1007880003180800C730F200C92BF20BC82BCC2B7A
:10079800CD2B0130F3070318F40A0030F407BE2B01
:1007A800FB01F91FDE2BF809F909F80A0319F90A00
:1007B800FB01FB0A7808F0007908F100F2018E309D
:1007C800F3007B08F4000A128A1166257008F80005
:1007D8007108F9007208FA000800FC01FD01831293
:1007E80003134B1CFD2B4D08FC070318FD0A4E088C
:1007F800FD0701300310CD0DCE0DFF3E031DFE2B6E
:1008080001300310CC0CCB0CFF3E031D052C4B080C
:100818004C04031DF32B7D08CC007C08CB0008009A
:10082800F600831203138610061006157608F039B1
:10083800880006110130F0000030F1000A128A1118
:10084800BC230A128A1183120313061576080F397E
:10085800F50003300310F50DFF3E031D2E2C031089
:10086800750D880006110130F0000030F1000A1201
:100878008A11BC230800F40008307402031C472CBA
:10088800F001F10108000130FF007F088312031313
:100898009F057408F20002300310F20DFF3E031D9D
:1008A800502C0310720DFF007F089F040330F300E3
:1008B8009730F200F20B5E2CF30B5E2C632C831244
:1008C80003131F151F19662C1E08F10083161E0836
:1008D800F00008007008710403199B2CF401F40A55
:1008E800F11B822C01300310F00DF10DFF3E031DAA
:1008F800772C0130FF007F08F407742C710873020D
:10090800031D882C70087202031C902C7008F202D8
:100918007108031CF303F30201300310F10CF00C0F
:10092800FF3E031D912C0130F402031D822C730835
:10093800F1007208F00008008312061006118610F4
:100948000F30F0000030F1000A128A11BC230A129D
:100958008A1183120313061502300A128A1114240D
:100968000A128A110230F0000030F1000A128A11CE
:10097800BC230A128A1128300A128A1114240A1276
:100988008A1104300A128A1114240A128A110C30AE
:100998000A128A1114240A128A110A128A119A2335
:1009A8000A128A1180300A128A1114240800F901E7
:1009B800FA01750876040319122DFB01FB0AF61BD0
:1009C800F12C01300310F50DF60DFF3E031DE62C4A
:1009D8000130FF007F08FB07E32C01300310F90DFD
:1009E800FA0DFF3E031DF22C76087802031DFE2C3B
:1009F80075087702031C072D7508F7027608031C93
:100A0800F803F802791401300310F60CF50CFF3ED8
:100A1800031D082D0130FB02031DF12C7A08F60096
:100A28007908F5000800F6000130F0000030F10008
:100A38000A128A11BC230A128A11760884000A1243
:100A48008A1103200A128A11003A03190800831236
:100A5800031306140615760884000A128A11032067
:100A68000A128A11F039880006110130F0000030AE
:100A7800F1000A128A11BC230A128A118312031385
:100A88000615760884000A128A1103200A128A11B0
:100A98000F39F50003300310F50DFF3E031D4F2DF0
:100AA8000310750D880006110130F0000030F100C8
:100AB8000A128A11BC230A128A110130FF007F082A
:100AC800F607212D730803196E2D7208710470043E
:100AD800031D812D0030F0000030F1000030F200DD
:100AE80008000130FF007F08F30701300310F20C03
:100AF800F10CF00CFF3E031D7A2DFE307205031930
:100B08009C2D752D0130FF007F08F3070130F00799
:100B1800003003180130F107003003180130F207E4
:100B280001300310F20CF10CF00CFF3E031D952D63
:100B3800FF3072050319AF2D862D02307302031C96
:100B4800B12D0130F30201300310F00DF10DF20D5B
:100B5800FF3E031DA82DF11FA12D7318B92DFF30DD
:100B6800F0057F30F105FF30F2050310F30C730830
:100B7800F500F601F70110300310F50DF60DF70D2D
:100B8800FF3E031DC02D7508F0047608F1047708B0
:100B9800F204740803190800F217080001308316DC
:100BA8008500C0308600870188018312870186018D
:100BB8008801053092000F30970001309F00803087
:100BC80083169F0083129101FF30831692000A1248
:100BD8008A11A0240A128A110A128A119A230A1267
:100BE8008A1104300A128A1117250A128A11F8018B
:100BF800F80A02300A128A11A8230A128A1115303B
:100C08000A128A1117250A128A11E830F0000330F7
:100C1800F1000A128A11BC230A128A110A128A11D7
:100C28009A230A128A1183120313061F2B2E871583
:100C380087160630F80002300A128A11A8230A1211
:100C48008A1120300A128A1117250A128A11831272
:100C58000313061B312E87118712861F432E071692
:100C680007170630F80002300A128A11A8230A1260
:100C78008A1128300A128A1117250A128A1183123A
:100C88000313861B172E07120713172E831203133D
:100C98003E08C2003F08C3004008C4000310430DCB
:100CA800440DCA004A08031D622E0030C1000030FE
:100CB800C0000030BF000030BE0008003E08C2007F
:100CC8003F08C3004008C40017300310C40CC30C0D
:100CD800C20CFF3E031D692E4208C500BF17FF3036
:100CE800BE05FF30BF050030C0053E08C6003F08FE
:100CF800C7004008C800C9018E30CA02CA1F992E11
:100D08004A08803A8F3E031C592E01300310C90C43
:100D1800C80CC70CC60CFF3E031D8A2E0130FF000D
:100D28007F08CA070319AC2E892E18304A02031807
:100D3800592E4A080319AC2E0130C2000310C60D03
:100D4800C70DC80DC90DC20BA22E0130CA029D2EB7
:100D580045080319BA2EC609C709C809C909C60A28
:100D68000319C70A0319C80A0319C90A4908C1009F
:100D78004808C0004708BF004608BE0008008312A4
:100D880003133208B5003308B6003408B70003105F
:100D9800360D370DBC003C08031DD92E0030AF00BE
:100DA8000030B0000030B10008002F08B50030084E
:100DB800B6003108B7000310360D370DBD003D08E9
:100DC800031DED2E0030AF000030B0000030B10040
:100DD80008000030B9000030BA000030BB0089308C
:100DE8003D07B5003508BC023408BD003108FF00D6
:100DF8007F08BD068030FF007F08BD05B317FF30B0
:100E0800B205FF30B3050030B405B017FF30AF05A9
:100E1800FF30B0050030B1051830B80001300310BC
:100E2800B90DBA0DBB0DFF3E031D132F3108340257
:100E3800031D242F30083302031D242F2F083202EC
:100E4800031C312F2F08B2023008031C300FB302E5
:100E58003108031C310AB402391401300310B20DF1
:100E6800B30DB40DFF3E031D322F0130B802031D30
:100E7800122F3908F0003A08F1003B08F2003C084C
:100E8800F3003D08F4000A128A11662570088312DF
:100E98000313AF007108B0007208B1000800831294
:100EA80003132008A6002108A7002208A8000310A1
:100EB800270D280DA9002908031D692F0030A0005F
:100EC8000030A1000030A20008002308A600240872
:100ED800A7002508A8000310270D280DAE002E082E
:100EE800031D7D2F0030A0000030A1000030A200BB
:100EF80008002E087B3EFF007F08A9072208AE00E5
:100F08002508FF007F08AE068030FF007F08AE0589
:100F1800A117A417FF30A305FF30A4050030A505CD
:100F28000030AA000030AB000030AC000730AD0044
:100F3800201CAC2F2308AA07240803110318240A2D
:100F4800031DAB07250803110318250A031DAC0769
:100F580001300310A20CA10CA00CFF3E031DAD2F05
:100F680001300310A30DA40DA50DFF3E031DB52FE1
:100F78000130AD02031D9C2F0930AD00201CD22F7B
:100F88002308AA07240803110318240A031DAB0722
:100F9800250803110318250A031DAC0701300310A7
:100FA800A20CA10CA00CFF3E031DD32F013003108F
:100FB800AC0CAB0CAA0CFF3E031DDB2F0130AD02BD
:100FC800031DC22F2A08F0002B08F1002C08F2009C
:100FD8002908F3002E08F4000A128A116625700801
:100FE80083120313A0007108A1007208A200080070
:080FF80083010A128A11D22DB7
:02400E00F93F78
:00000001FF
