:100000000A128A11E62F00308A000408840A820747
:1000100000344634753472346B3461346E342034B9
:1000200054342E3442346134643465346D34633472
:100030006934003441344434433420344434453446
:10004000473445345234493420343A340034473448
:100050003234313430343134303434343034313477
:100060003634003479346F346E3420343A342034EA
:100070000034533441344734003453344F344C3417
:0200800000344A
:100C000042344F3453340034F50075088312031313
:100C100088000614861006150A30F0000030F10036
:100C20000A128A112A268312031306110800F500FE
:100C300075088312031388000610861006150A3003
:100C4000F0000030F1000A128A112A2683120313E1
:100C500006110800F301F4017408803AF2007108EB
:100C6000803A7202031D362E7008730203180800C2
:100C7000C730F2003B2EF20B3A2E3E2E3F2E0130B3
:100C8000F3070318F40A0030F4072C2EF600760858
:100C900084000A128A1103200A128A11003A0319E9
:100CA0000800760884000A128A1103200A128A11A9
:100CB0000A128A1104260A128A110130FF007F08E5
:100CC000F607472E38300A128A1117260A128A119F
:100CD0000C300A128A1117260A128A1106300A12DB
:100CE0008A1117260A128A1180300A128A111726D1
:100CF0000A128A1101300A128A1117260800770891
:100D000078040319AC2EFB01FB0AF81B932E01306B
:100D10000310F70DF80DFF3E031D882E0130FF0074
:100D20007F08FB07852E78087A02031D992E770825
:100D30007902031CA12E7708F9027808031CFA0334
:100D4000FA0201300310F80CF70CFF3E031DA22E2F
:100D50000130FB02031D932E7A08F8007908F70092
:100D60000800F401F501700871040319E82EF6017A
:100D7000F60AF11BC72E01300310F00DF10DFF3EF6
:100D8000031DBC2E0130FF007F08F607B92E01308D
:100D90000310F40DF50DFF3E031DC82E71087302FC
:100DA000031DD42E70087202031CDD2E7008F2029F
:100DB0007108031CF303F302741401300310F10CE7
:100DC000F00CFF3E031DDE2E0130F602031DC72E80
:100DD0007508F1007408F000080083168601880188
:100DE0000130870083128601831605140A128A11C6
:100DF00062260A128A1101300A128A1146260A1244
:100E00008A11C0300A128A1117260A128A111F305D
:100E10000A128A1146260A128A11F430F0000130B3
:100E2000F1000A128A112A260A128A110A128A115C
:100E300062260A128A1112300A128A1146260A12F2
:100E40008A11352F061731300A128A1146260A12E6
:100E50008A110718292F823083120313A500DD3071
:100E6000A400A40B312FA50B312F8C300A128A114C
:100E700017260A128A110A128A115B270A128A118E
:100E8000C0300A128A1117260A128A112A300A1251
:100E90008A1146260A128A1186160718222F871CE5
:100EA000352F35300A128A1146260A128A11861702
:100EB000871C2B2F582FC03083169F00853083123C
:100EC0009F001F19612F1E08FD0083161E08FC00DD
:100ED0000330F0000030F1007D08F3007C08F200E0
:100EE0000A128A11B1260A128A117008FF3EFC000C
:100EF00071080318013EFF3EFD00E830F0000330AA
:100F0000F1007D08F3007C08F2000A128A11B12674
:100F10000A128A117008303E0A128A1104260A1237
:100F20008A110A30F7000030F8006430F000003019
:100F3000F1007D08F3007C08F2000A128A11B12644
:100F40000A128A117108FA007008F9000A128A114F
:100F50007F260A128A117708303E0A128A11042667
:100F60000A128A110A30F7000030F8000A30F00047
:100F70000030F1007D08F3007C08F2000A128A11AB
:100F8000B1260A128A117108FA007008F9000A12D3
:100F90008A117F260A128A117708303E0A128A11B6
:100FA00004260A128A110A30F7000030F8007D0882
:100FB000FA007C08F9000A128A117F260A128A11A7
:100FC0007708303E0A128A11042608000A128A1194
:100FD00000260A128A11A0000A128A1101260A129A
:100FE0008A11A1000A128A1102260A128A11A2008D
:100FF0000A128A110326A30083010A128A11ED2E18
:02400E007A3FF7
:00000001FF
