:100000000A128A11FC2F00308A000408840A820731
:1000100000340034A0343B344634753472346B34CD
:1000200061346E34203454342E34423461346434B8
:1000300065346D34633469340034473432343134D8
:1000400030343134303434343034313436340034B4
:1000500059344F344E343A345334413447340034F5
:1000600059344F344E343A3453344F344C340034D2
:0A007000483449345A343A3400345D
:1005E400F70077080A128A114F23080001300A1213
:1005F4008A11F2220A128A110230F0000030F1004E
:100604000A128A111A230800F9007903031D122B18
:100614007808FF3E0F39803E0A128A11F222080040
:100624007808FF3E0F39C03E0A128A11F2220800F0
:10063400F301F40171087402031D222B7008730284
:1006440003180800C730F200272BF20B262B2A2BA5
:100654002B2B0130F3070318F40A0030F4071C2B8A
:10066400FB01F91F3C2BF809F909F80A0319F90AE7
:10067400FB01FB0A7808F0007908F100F2018E30E2
:10068400F3007B08F4000A128A119F247008F80012
:100694007108F9007208FA000800F60083120313C7
:1006A4008610061006157608F039880006110A30FF
:1006B400F0000030F1000A128A111A230A128A117A
:1006C40083120313061576080F39F500033003105F
:1006D400F50DFF3E031D692B0310750D88000611EF
:1006E4000A30F0000030F1000A128A111A230800BF
:1006F400F40008307402031C822BF001F10108009D
:10070400C330FF007F089F057408F2000230031015
:10071400F20DFF3E031D892B0310720DFF007F08AD
:100724009F040330F3009730F200F20B972BF30B86
:10073400972B9C2B831203131F151F199F2B1E0825
:10074400F10083161E08F0000800700871040319F4
:10075400D42BF401F40AF11BBB2B01300310F00D70
:10076400F10DFF3E031DB02B0130FF007F08F4079D
:10077400AD2B71087302031DC12B70087202031C98
:10078400C92B7008F2027108031CF303F302013051
:100794000310F10CF00CFF3E031DCA2B0130F402D0
:1007A400031DBB2B7308F1007208F00008008312CC
:1007B4000610061186100F30F0000030F1000A1206
:1007C4008A111A230A128A1183120313061502309E
:1007D4000A128A114F230A128A110230F0000030E3
:1007E400F1000A128A111A230A128A1128300A12F5
:1007F4008A114F230A128A1104300A128A114F23D4
:100804000A128A110C300A128A114F230A128A1111
:100814000A128A11F8220A128A1180300A128A11E5
:100824004F230800F901FA017508760403194B2CCB
:10083400FB01FB0AF61B2A2C01300310F50DF60D03
:10084400FF3E031D1F2C0130FF007F08FB071C2CFB
:1008540001300310F90DFA0DFF3E031D2B2C760811
:100864007802031D372C75087702031C402C750889
:10087400F7027608031CF803F80279140130031018
:10088400F60CF50CFF3E031D412C0130FB02031D49
:100894002A2C7A08F6007908F5000800F6000130E1
:1008A400F0000030F1000A128A111A230A128A1188
:1008B400760884000A128A1103200A128A11003A67
:1008C400031908008312031306140615760884001E
:1008D4000A128A1103200A128A11F03988000611BB
:1008E4000130F0000030F1000A128A111A230A12B2
:1008F4008A11831203130615760884000A128A11DA
:1009040003200A128A110F39F50003300310F50D84
:10091400FF3E031D882C0310750D8800061101305D
:10092400F0000030F1000A128A111A230A128A1107
:100934000130FF007F08F6075A2C73080319A72C0F
:10094400720871047004031DBA2C0030F0000030EA
:10095400F1000030F20008000130FF007F08F307C7
:1009640001300310F20CF10CF00CFF3E031DB32C0C
:10097400FE3072050319D52CAE2C0130FF007F0820
:10098400F3070130F007003003180130F10700309D
:1009940003180130F20701300310F20CF10CF00CD3
:1009A400FF3E031DCE2CFF3072050319E82CBF2C2B
:1009B40002307302031CEA2C0130F30201300310ED
:1009C400F00DF10DF20DFF3E031DE12CF11FDA2CA9
:1009D4007318F22CFF30F0057F30F105FF30F2057B
:1009E4000310F30C7308F500F601F701103003103F
:1009F400F50DF60DF70DFF3E031DF92C7508F004F7
:100A04007608F1047708F204740803190800F21751
:100A140008003E08C2003F08C3004008C400031099
:100A2400430D440DCA004A08031D212D0030C100A6
:100A34000030C0000030BF000030BE0008003E0897
:100A4400C2003F08C3004008C40017300310C40CA0
:100A5400C30CC20CFF3E031D282D4208C500BF175E
:100A6400FF30BE05FF30BF050030C0053E08C6009C
:100A74003F08C7004008C800C9018E30CA02CA1F17
:100A8400582D4A08803A8F3E031C182D013003105C
:100A9400C90CC80CC70CC60CFF3E031D492D013000
:100AA400FF007F08CA0703196B2D482D18304A022E
:100AB4000318182D4A0803196B2D0130C2000310C6
:100AC400C60DC70DC80DC90DC20B612D0130CA0278
:100AD4005C2D45080319792DC609C709C809C90938
:100AE400C60A0319C70A0319C80A0319C90A490817
:100AF400C1004808C0004708BF004608BE000800FF
:100B04003208B5003308B6003408B7000310360DB8
:100B1400370DBC003C08031D962D0030AF0000309B
:100B2400B0000030B10008002F08B5003008B6004E
:100B34003108B7000310360D370DBD003D08031D05
:100B4400AA2D0030AF000030B0000030B100080022
:100B54000030B9000030BA000030BB0089303D07D6
:100B6400B5003508BC023408BD003108FF007F0819
:100B7400BD068030FF007F08BD05B317FF30B20506
:100B8400FF30B3050030B405B017FF30AF05FF30B8
:100B9400B0050030B1051830B80001300310B90DAC
:100BA400BA0DBB0DFF3E031DD02D31083402031DC9
:100BB400E12D30083302031DE12D2F083202031CFE
:100BC400EE2D2F08B2023008031C300FB302310897
:100BD400031C310AB402391401300310B20DB30DF1
:100BE400B40DFF3E031DEF2D0130B802031DCF2DC0
:100BF4003908F0003A08F1003B08F2003C08F30021
:100C04003D08F4000A128A119F2470088312AF0071
:100C14007108B0007208B10008002008A60021087D
:100C2400A7002208A8000310270D280DA9002908F1
:100C3400031D232E0030A0000030A1000030A200CC
:100C440008002308A6002408A7002508A80003100C
:100C5400270D280DAE002E08031D372E0030A000EE
:100C64000030A1000030A20008002E087B3EFF00E7
:100C74007F08A9072208AE002508FF007F08AE06FA
:100C84008030FF007F08AE05A117A417FF30A3052D
:100C9400FF30A4050030A5050030AA000030AB00E9
:100CA4000030AC000730AD00201C662E2308AA07D4
:100CB400240803110318240A031DAB072508031194
:100CC4000318250A031DAC0701300310A20CA10C64
:100CD400A00CFF3E031D672E01300310A30DA40DCD
:100CE400A50DFF3E031D6F2E0130AD02031D562ED0
:100CF4000930AD00201C8C2E2308AA0724080311F8
:100D04000318240A031DAB07250803110318250A39
:100D1400031DAC0701300310A20CA10CA00CFF3E74
:100D2400031D8D2E01300310AC0CAB0CAA0CFF3E3E
:100D3400031D952E0130AD02031D7C2E2A08F00000
:100D44002B08F1002C08F2002908F3002E08F40007
:100D54000A128A119F2470088312A0007108A1004E
:100D64007208A2000800013083168500C030860096
:100D74008701880183128501870186018801053076
:100D840092000F30970001309F00803083169F003F
:100D940083129101FF30831692000A128A11D9231B
:100DA4000A128A110A128A11F8220A128A110430CC
:100DB4000A128A1150240A128A11F801F80A023020
:100DC4000A128A1106230A128A1115300A128A118C
:100DD40050240A128A11E830F0000330F1000A129C
:100DE4008A111A230A128A110A128A11F8220A1283
:100DF4008A1183120313061F0F2F871587160630D7
:100E0400F80002300A128A1106230A128A112030CD
:100E14000A128A1150240A128A1183120313061B20
:100E2400152F87118712861F272F071607170630DD
:100E3400F80002300A128A1106230A128A11283095
:100E44000A128A1150240A128A1183120313861B70
:100E54002D2F0712071300300A128A117A230A125F
:100E64008A1171088312CF007008CE004F08FD006C
:100E74004E08FC000310FD0CFC0C0310FD0CFC0CD4
:100E84007C0895004E1C4A2F8312031397164D2F8E
:100E940083120313971217128230FD00DD30FC0019
:100EA400FC0B522FFD0B522F572F0630F800013048
:100EB4000A128A1106230A128A1130300A128A1180
:100EC40050240A128A11831203131E08FC00FD0128
:100ED4007C08FD00FC0183161E087C07F800003026
:100EE400031801307D07F9000A128A1132230A120D
:100EF4008A1178088312A3007908A4007A08A5004F
:100F04000030A000A030A1003B30A2000A128A11D8
:100F14000F260A128A112008B2002108B300220801
:100F2400B4000030AF00A030B0004030B1000A126D
:100F34008A1182250A128A112F08CB003008CC00AE
:100F44003108CD004B08A3004C08A4004D08A500AF
:100F54000030A000C830A1004230A2000A128A1159
:100F64000F260A128A112008BE002108BF00220899
:100F7400C0000A128A110B250A128A113F08CF00F9
:100F84003E08CE000A30F5000030F6004F08F300AA
:100F94004E08F2006430F0000030F1000A128A11A9
:100FA400A7230A128A117108F8007008F7000A12C0
:100FB4008A1114240A128A117508303E0A128A1101
:100FC400F2220A128A110A30F0000030F100831272
:100FD40003134F08F3004E08F2000A128A11A723E4
:100FE4000A128A117008303E0A128A11F2220A1279
:0C0FF4008A11FB2E83010A128A11B52E0F
:02400E00F93F78
:00000001FF
