:100000000A128A11F82F00308A000408840A820735
:100010000034413444344334203444346534673448
:0C00200065347234693420343A34003402
:100CDC0038300A128A11BC260A128A110C300A12F8
:100CEC008A11BC260A128A1106300A128A11BC26F5
:100CFC000A128A1180300A128A11BC260800831647
:100D0C008601880105140A128A116E260A128A11AC
:100D1C0001300A128A11A0260A128A118C300A128A
:100D2C008A11BC260A128A110A128A116D270A121C
:100D3C008A11942EF100710884000A128A11032082
:100D4C000A128A11003A03190800710884000A1269
:100D5C008A1103200A128A110A128A11DD260A123C
:100D6C008A110130FF007F08F107A12EF0007008F6
:100D7C0083128800061086100615A001A101210817
:100D8C00803AFF0083307F02031DCE2EE930200213
:100D9C000318D92E013083120313A0070318A10ADC
:100DAC000030A107C52E8312031306110800F000B2
:100DBC007008831203138800061486100615A00110
:100DCC00A1012108803AFF0083307F02031DF02E21
:100DDC00E93020020318FB2E013083120313A00705
:100DEC000318A10A0030A107E72E83120313061182
:100DFC0008007708780403192C2FFB01FB0AF81B59
:100E0C00132F01300310F70DF80DFF3E031D082FB3
:100E1C000130FF007F08FB07052F78087A02031DBD
:100E2C00192F77087902031C212F7708F90278080B
:100E3C00031CFA03FA0201300310F80CF70CFF3E06
:100E4C00031D222F0130FB02031D132F7A08F8001B
:100E5C007908F7000800F401F50170087104031912
:100E6C00682FF601F60AF11B472F01300310F00D25
:100E7C00F10DFF3E031D3C2F0130FF007F08F607EC
:100E8C00392F01300310F40DF50DFF3E031D482FD3
:100E9C0071087302031D542F70087202031C5D2F1E
:100EAC007008F2027108031CF303F302741401308E
:100EBC000310F10CF00CFF3E031D5E2F0130F60207
:100ECC00031D472F7508F1007408F0000800C030AE
:100EDC0083169F00853083129F001F19732F1E08E5
:100EEC00FD0083161E08FC000330F0000030F100FA
:100EFC007D08F3007C08F2000A128A1131270A12CD
:100F0C008A117008FF3EFC0071080318013EFF3E79
:100F1C00FD00E830F0000330F1007D08F3007C08A0
:100F2C00F2000A128A1131270A128A117008303E17
:100F3C000A128A11DD260A128A110A30F7000030D3
:100F4C00F8006430F0000030F1007D08F3007C08FC
:100F5C00F2000A128A1131270A128A117108FA005A
:100F6C007008F9000A128A11FF260A128A117708F2
:100F7C00303E0A128A11DD260A128A110A30F70055
:100F8C000030F8000A30F0000030F1007D08F3006A
:100F9C007C08F2000A128A1131270A128A11710890
:100FAC00FA007008F9000A128A11FF260A128A1137
:100FBC007708303E0A128A11DD260A128A110A308D
:100FCC00F7000030F8007D08FA007C08F9000A12DE
:100FDC008A11FF260A128A117708303E0A128A11EA
:100FEC00DD26080083120313A001A10183010A125C
:040FFC008A11852EA3
:02400E007A3FF7
:00000001FF
