:060000000A128A110E280D
:10000800FE00030EF0000A08F1007F08F2000A1251
:100018008A1115280A128A11112883010A128A11D5
:100028002F280B1D26280130FF007F08F3077308CF
:100038008312031386000B11FF3081001030730602
:10004800031926287208FF0071088A00700E8300C1
:10005800FE0E7E0E0900103083168500860183127D
:1000680085018601FF3081008316811601128111F6
:0E0078000110811001110B118B178B164228FD
:02400E00F93F78
:00000001FF
