:060000000A128A11FC2F18
:100DEC0083168801F0308600870183128801870101
:100DFC000A128A1104270A128A11FE2E8615061E63
:100E0C00142F1A30F100F830F000F00B0B2FF10B0F
:100E1C000B2F00000A30831203138800861E232F29
:100E2C001A30F100F830F000F00B1A2FF10B1A2FDA
:100E3C0000000330831203138800061F322F1A3070
:100E4C00F100F830F000F00B292FF10B292F0000E6
:100E5C000230831203138800861F412F1A30F100D1
:100E6C00F830F000F00B382FF10B382F0000013068
:100E7C0083120313880086110615061E522F1A3092
:100E8C00F100F830F000F00B492FF10B492F000066
:100E9C000B30831203138800861E612F1A30F10069
:100EAC00F830F000F00B582FF10B582F00000630E3
:100EBC00831203138800061F702F1A30F100F830CC
:100ECC00F000F00B672FF10B672F00000530831239
:100EDC0003138800861F7F2F1A30F100F830F000C2
:100EEC00F00B762FF10B762F0000043083120313D6
:100EFC00880006118614061E902F1A30F100F83067
:100F0C00F000F00B872FF10B872F00000C308312B1
:100F1C0003138800861E9F2F1A30F100F830F00062
:100F2C00F00B962FF10B962F000009308312031350
:100F3C008800061FAE2F1A30F100F830F000F00BCD
:100F4C00A52FF10BA52F0000083083120313880086
:100F5C00861FBD2F1A30F100F830F000F00BB42FC3
:100F6C00F10BB42F00000730831203138800861096
:100F7C000614061ECE2F1A30F100F830F000F00BDC
:100F8C00C52FF10BC52F00000D3083120313880001
:100F9C00861EDD2F1A30F100F830F000F00BD42F44
:100FAC00F10BD42F00000F30831203138800061F9F
:100FBC00EB2F1A30F100F830F000F00BE32FF10BAF
:100FCC00E32F0000831203138801861FFA2F1A30B7
:100FDC00F100F830F000F00BF12FF10BF12F0000C5
:100FEC000E308312031388000610080083010A12C6
:040FFC008A11F62E32
:02400E00F93F78
:00000001FF
