:060000000A128A11F52F1F
:100008008E30FC00FF307B050319182801300310DF
:10001800FB0CFA0CF90CF80CFF3E031D0B28013001
:10002800FF007F08FC0706287808F0007908F1002F
:100038007A08F2007C08F300F4010A128A151522E6
:100048007008F8007108F9007208FA0008007030AA
:1000580084000008F600840A0008F700840A0008F3
:10006800F800840A0008F9000310780D790D83124E
:100078000313A5002508031D4A280030F3000030AB
:10008800F2000030F1000030F00008007330840006
:100098000008F600840A0008F700840A0008F8003F
:1000A800840A0008F9000310780D790DA4002408CB
:1000B800031941287030840000308004840A00301D
:1000C8008004840A80308004840A00308004703000
:1000D8008400FF308005840AFF308005840AFF30E1
:1000E8008005840A00308005733084000030800465
:1000F800840A00308004840A80308004840A003036
:10010800800473308400FF308005840AFF30800546
:10011800840AFF308005840A003080050030A3007F
:100128000030A2000030A1000030A0007F30A502FE
:10013800A0302407F6007608A5022030A40001307C
:10014800F6000310A00DA10DA20DA30DF60BA52816
:10015800733084000008F600840A0008F700840A57
:100168000008F800840A0008F900703084000008CC
:10017800FA00840A0008FB00840A0008FC00840ACC
:100188000008FD0079087D02031DD42878087C0248
:10019800031DD42877087B02031DD42876087A0229
:1001A800031CF928733084000008F600840A00084C
:1001B800F700840A0008F800840A0008F900703083
:1001C800840076088002840A7708031C770F80026F
:1001D800840A7808031C780F8002840A7908031CB3
:1001E800790A8002033084022014703084000310DE
:1001F800800D840A800D840A800D840A800D840392
:10020800840384030130A402031DA328A51F212908
:100218002508803A9F3E031C412801300310A30C97
:10022800A20CA10CA00CFF3E031D12290130FF00F7
:100238007F08A5070319342911292030250203183E
:1002480041282508031934290130F6000310A00DB0
:10025800A10DA20DA30DF60B2A290130A50225290F
:100268002308F3002208F2002108F1002008F0001A
:100278000800B800B81F6B2AB809B80A3808803ACD
:10028800123E031CED290330A0003808F200F301E8
:10029800F21BF3036430F0000030F1000A168A11F3
:1002A800B5270A128A117108F9007008F8000A3097
:1002B800F6000030F7000A128A1503210A128A1183
:1002C80076080A168A1123260A128A11433E8400E8
:1002D8000A128A150A200A128A11A3000A128A151C
:1002E8000A200A128A11A4000A128A150A200A1280
:1002F8008A11A5000330A0003808F800F901F81B9E
:10030800F9036430F6000030F7000A128A15032159
:100318000A128A1176080A168A1123260A128A11E5
:100328005E3E84000A128A150A200A128A11A60063
:100338000A128A150A200A128A11A7000A128A15B7
:100348000A200A128A11A8000A128A1599230A1289
:100358008A112308B5002408B6002508B700033021
:10036800A0003808F200F301F21BF3030A30F00092
:100378000030F1000A168A11B5270A128A1170088E
:100388000A168A1123260A128A11283E84000A12A4
:100398008A150A200A128A11A3000A128A150A204D
:1003A8000A128A11A4000A128A150A200A128A114E
:1003B800A5003508A6003608A7003708A8000A12C5
:1003C8008A1599232308B2002408B3002508B4002D
:1003D80008003808803A753E031C502A0330A000F4
:1003E8003808F200F301F21BF3030A30F000003082
:1003F800F1000A168A11B5270A128A1170080A161E
:100408008A1123260A128A11283E84000A128A15A4
:100418000A200A128A11A3000A128A150A200A124F
:100428008A11A4000A128A150A200A128A11A50044
:100438000330A0003808F800F901F81BF9030A3066
:10044800F6000030F7000A128A1503210A128A11F1
:1004580076080A168A1123260A128A11433E840056
:100468000A128A150A200A128A11A6000A128A1587
:100478000A200A128A11A7000A128A150A200A12EB
:100488008A11A8000A128A1599232308B2002408A1
:10049800B3002508B40008000330A00038080A1685
:1004A8008A1123260A128A11283E84000A128A1504
:1004B8000A200A128A11B2000A128A150A200A12A0
:1004C8008A11B3000A128A150A20B40008003808F5
:1004D800803A123E031C162B0330A0003808F200A5
:1004E800F301F21BF3036430F0000030F1000A1648
:1004F8008A11B5270A128A117108F9007008F800E4
:100508000A30F6000030F7000A128A1503210A1291
:100518008A1176080A168A1123260A128A111C3EA5
:1005280084000A128A150A200A128A11A3000A12E4
:100538008A150A200A128A11A4000A128A150A20AA
:100548000A128A11A5000330A0003808F800F90142
:10055800F81BF9036430F6000030F7000A128A1518
:1005680003210A128A1176080A168A1123260A120A
:100578008A11373E84000A128A150A200A128A1143
:10058800A6000A128A150A200A128A11A7000A125E
:100598008A150A200A128A11A8000A128A159923B4
:1005A8000A128A112308B5002408B6002508B700E6
:1005B8000330A0003808F200F301F21BF3030A30FD
:1005C800F0000030F1000A168A11B5270A128A11C4
:1005D80070080A168A1123260A128A11013E84001D
:1005E8000A128A150A200A128A11A3000A128A1509
:1005F8000A200A128A11A4000A128A150A200A126D
:100608008A11A5003508A6003608A7003708A800F3
:100618000A128A1599232308B2002408B300250872
:10062800B40008003808803A753E031C792B033063
:10063800A0003808F200F301F21BF3030A30F000BF
:100648000030F1000A168A11B5270A128A117008BB
:100658000A168A1123260A128A11013E84000A12F8
:100668008A150A200A128A11A3000A128A150A207A
:100678000A128A11A4000A128A150A200A128A117B
:10068800A5000330A0003808F800F901F81BF903A9
:100698000A30F6000030F7000A128A1503210A1200
:1006A8008A1176080A168A1123260A128A111C3E14
:1006B80084000A128A150A200A128A11A6000A1250
:1006C8008A150A200A128A11A7000A128A150A2016
:1006D8000A128A11A8000A128A1599232308B2005F
:1006E8002408B3002508B40008000330A000380827
:1006F8000A168A1123260A128A11013E84000A1258
:100708008A150A200A128A11B2000A128A150A20CA
:100718000A128A11B3000A128A150A20B4000800C6
:10072800EA004F30DB000130CE07FF304E0784006F
:100738000A128A150A200A128A11EE006E08031995
:10074800F02F25306E060319AD2B6A0884006E0859
:10075800E92FDC01DD014E0884000A128A150A20FF
:100768000A128A112E3A031DF72B5D170130FF007C
:100778007F08CE07E801E9014E0884000A128A15AD
:100788000A200A128A110A168A1115260A128A11D3
:10079800031CFD2B0A30F0000030F1006908F3005B
:1007A8006808F2000A168A119E260A128A11710830
:1007B800E9007008E8004E0884000A128A150A2029
:1007C8000A128A11D03ED200FF3003180030D3003D
:1007D8005208E8070318E90A5308E9070130FF003F
:1007E8007F08CE07C02BE801E9015D16FD2B5D15DA
:1007F8000F2C0130CE07FF304E0784000A128A15ED
:100808000A200A128A11EE00003A0319F02F663AFC
:100818000319FB2B972B00305C05D20007305D05D0
:10082800D300520853040319BA2F5D1E1F2C06303B
:10083800E8000030E9005B08840083130008EB003F
:10084800840A0008EC00840A0008ED000330FF0069
:100858007F08DB076B08F0006C08F1006D08F200F8
:100868000030F3000030F4000030F5000A168A1159
:100878000D270A128A110318562C6B08F0006C0811
:10088800F1006D08F2000A168A1105260A128A116B
:100898007008EB007108EC007208ED000330DC040E
:1008A8000030DD04E201E3016D086C046B040319F8
:1008B800082D6B30840083130008D200840A0008D6
:1008C800D300840A0008D400840A0008D5000F3039
:1008D8000310D50CD40CD30CD20CFF3E031D6C2C8A
:1008E800FF305205D60000305305D7005608823E27
:1008F800E20057080318013EFF3EE300FF30E2071D
:100908000318E30AFF30E3070330F0000030F1007A
:100918006308F3006208F2000A168A119E260A127A
:100928008A117108E3007008E2000A30F60000300E
:10093800F7006308F9006208F8000A128A15032113
:100948000A128A117708E3007608E200E31FB22C46
:10095800FF30E2070318E30AFF30E3076203FF3AB8
:100968000A128A113D210A128A113208E40033085A
:10097800E5003408E6006B08A3006C08A4006D08C5
:10098800A5006408A6006508A7006608A8000A1262
:100998008A1599230A128A112308E4002408E5001D
:1009A8002508E6006408F0006508F1006608F20012
:1009B8000030F3008030F4003F30F5000A168A1149
:1009C8000D270A128A110318EF2CFF30E2070318CB
:1009D800E30AFF30072D6408F0006508F100660897
:1009E800F2000030F3002030F4004130F5000A1620
:1009F8008A110D270A128A11031C082D0130E207FB
:100A08000318E30A0030E3076908803AFF008030E2
:100A18007F02031D112D0D3068020318322D831239
:100A2800031368080A128A153B250A128A1132082C
:100A3800BC003308BD003408BE006B08BF006C085A
:100A4800C0006D08C1000A128A153F240A128A11D3
:100A58003C08EB003D08EC003E08ED008312031350
:100A68006308803AFF0080307F02031D3D2D0A3065
:100A780062020318622D831203136D086C046B0461
:100A88000319AB2D6B08B9006C08BA006D08BB00E0
:100A98000A128A1581220A128A113C083B043A0478
:100AA8003904031DAB2D6308803AFF0080307F02B4
:100AB800031D602D02306202031CAB2D8312031349
:100AC8006408F0006508F1006608F2007030F30071
:100AD8008930F4004030F5000A168A110D270A12F1
:100AE8008A110318792DF7307A2DF830E2070318A8
:100AF800E30AFF30E30762080A128A113D210A124D
:100B08008A113208E4003308E5003408E6006B086F
:100B1800F0006C08F1006D08F2006408F300650845
:100B2800F4006608F5000A128A15F8220A128A11DA
:100B38007308E1007208E0007108DF007008DE0049
:100B48000030EB000030EC000030ED00E72D8312A0
:100B580003136B08B9006C08BA006D08BB000A12D1
:100B68008A1581220A128A113C08E1003B08E0003C
:100B78003A08DF003908DE006108FB006008FA0067
:100B88005F08F9005E08F8000A128A1104200A12A8
:100B98008A1178088312C8007908C9007A08CA003F
:100BA8006B08CB006C08CC006D08CD000A128A15C2
:100BB8009A200A128A114808EB004908EC004A08F2
:100BC800ED00E201E301EE01EE0A6E08D200013009
:100BD8000310D20DFF3E031DEC2D0310520D4F3EA6
:100BE80084000A128A150A200A128A11D3000A12EE
:100BF8008A150A200A128A11D4000A128A150A20B4
:100C08000A128A11D5000A128A150A200A128A11B4
:100C1800D60056086102031D1B2E55086002031DED
:100C28001B2E54085F02031D1B2E53085E02031C73
:100C3800252E0130FF007F08EE070A306E06031DDF
:100C4800E92D5C0803390319322E6A0884002D3017
:100C5800831380000130FF007F08EA070130EE02AD
:100C68006E0A0319A32E6E08D20001300310D20DAC
:100C7800FF3E031D3A2E0310520D4F3E84000A1208
:100C88008A150A200A128A11F0000A128A150A2007
:100C98000A128A11F1000A128A150A200A128A1108
:100CA800F2000A128A150A200A128A11F300610852
:100CB800F7006008F6005F08F5005E08F4000A1205
:100CC8008A15B7210A128A117308E7007208E6002C
:100CD8007108E5007008E4000030F3000030F2000D
:100CE8000030F1000A30F0006708F7006608F600E7
:100CF8006508F5006408F4000A128A15B7200A127C
:100D08008A117308E7007208E6007108E5007008A8
:100D1800E4006A0884006408303E2C2E8312031312
:100D28006A0884003030831380000130FF007F0898
:100D3800EA07FF30E2070318E30AFF30E307630816
:100D4800803AFF0080307F02031DAC2E0130620222
:100D58000318922E831203136908803AFF0080302B
:100D68007F02031DB92E09306802031CBF2E08300C
:100D780083120313C22E831203136808EE006E0851
:100D8800D200D3015208E8025308031CE903E90220
:100D98006E080319D82E6A0884002E308313800049
:100DA8000130FF007F08EA076E080A128A113D2108
:100DB8000A128A113208D8003308D9003408DA0038
:100DC8005808A6005908A7005A08A8006B08A300ED
:100DD8006C08A4006D08A5000A128A1599230A1246
:100DE8008A112308B9002408BA002508BB000A1292
:100DF8008A1581220A128A113C08E1003B08E000AA
:100E08003A08DF003908DE000130EE026E0A0319E5
:100E1800B52F6E08D20001300310D20DFF3E031D1E
:100E2800102F0310520D4F3E84000A128A150A2013
:100E38000A128A11F0000A128A150A200A128A1167
:100E4800F1000A128A150A200A128A11F2000A12FF
:100E58008A150A200A128A11F3006108F70060084F
:100E6800F6005F08F5005E08F4000A128A15B7213B
:100E78000A128A117308E7007208E6007108E50093
:100E88007008E4000030F3000030F2000030F10098
:100E98000A30F0006708F7006608F6006508F500F4
:100EA8006408F4000A128A15B7200A128A11730816
:100EB800E7007208E6007108E5007008E4006A08B7
:100EC80084006408303E831380000130FF007F08EF
:100ED800EA076E08D20001300310D20DFF3E031D51
:100EE800702F0310520D4F3E84000A128A150A20F3
:100EF8000A128A11F0000A128A150A200A128A11A7
:100F0800F1000A128A150A200A128A11F2000A123E
:100F18008A150A200A128A11F3006108F70060088E
:100F2800F6005F08F5005E08F4000A128A15B7207B
:100F38000A128A117308E1007208E0007108DF00E4
:100F48007008072F6A08840030308313800001304E
:100F5800FF007F08EA07FF30E8070318E90AFF30B7
:100F6800E907680869040319972BA62F680869041C
:100F7800031DCA2F610860045F045E04031DCA2FA5
:100F88000130E8070318E90A0030E9076908803AE0
:100F9800803C031DD12F68086E02031CE02F8312CA
:100FA80003136908803AD20080305202031DDE2FF5
:100FB8006E086802031CE02F831203135C080339D0
:100FC8000319972B6A0884002D30831380000130A1
:100FD800FF007F08EA07972B6A08840083138001C3
:100FE80008008313A0308400B2300A168A110D2637
:100FF80083010A128A15792EFF1B0A2883137F188A
:1010080083170008840A0319FF0A080008308A00B9
:101018000408840A82070034003480343F340034E2
:10102800203441340034C834423400347A344434EF
:1010380040341C3446345034C33447342434743474
:101048004934973418344B34BC34BE344C346B3484
:101058006E344E340334153450347934AD3460343E
:10106800F33449347134003480343F34CD34CC34D3
:101078003D34D73423343C34123483343A34B734CF
:10108800D1343834C6342734373438348634353498
:10109800C034D6343334CC342B34323470348934BD
:1010A8003034E734DB342E34E5343C341E344234F7
:1010B800A2340D3401340034003400340A340034CE
:1010C800003400346434003400340034E834033429
:1010D800003400341034273400340034A03486340B
:1010E80001340034403442340F34003480349634B0
:1010F800983400340034E134F53405340034CA340B
:101108009A343B3441344E3430343D340034413425
:101118004E3431343D34003441344E3432343D346D
:10112800003425342E343234663400344A084904F5
:1011380048040319A1288030CA064B08BC004C0893
:10114800BD004D08BE004808BF004908C0004A0855
:10115800C1000A128A153F243C08C8003D08C9008E
:101168003E08CA0008007308720471047004031969
:10117800FA28F901F90AF31BCF280130F800031007
:10118800F00DF10DF20DF30DF80BC3280130FF003F
:101198007F08F907BF2873087702031DDD28720846
:1011A8007602031DDD2871087502031DDD2870080D
:1011B8007402031CED287008F4027108031C710FF7
:1011C800F5027208031C720FF6027308031C730FF2
:1011D800F70201300310F30CF20CF10CF00CFF3E97
:1011E800031DEE280130F902031DCF287708F3000C
:1011F8007608F2007508F1007408F0000800FB0199
:10120800F71F0D29F609F709F60A0319F70AFB0172
:10121800FB0AF91F1829F809F909F80A0319F90A44
:101228000130FF007F08FB06FC01FD01760877040A
:1012380003194F29FA01FA0AF71B2E290130031066
:10124800F60DF70DFF3E031D23290130FF007F082F
:10125800FA07202901300310FC0DFD0DFF3E031D88
:101268002F2977087902031D3B2976087802031C89
:1012780044297608F8027708031CF903F9027C145C
:1012880001300310F70CF60CFF3E031D4529013011
:10129800FA02031D2E297B0803195729FC09FD09A9
:1012A800FC0A0319FD0A7D08F7007C08F60008000F
:1012B80000300A168A1134260A128A151A30F500E7
:1012C800F830F400F40B6629F50B662900000330AA
:1012D8000A168A114A260A128A150730F5007D3047
:1012E800F400F40B7529F50B752903300A168A11D9
:1012F8004A260A128A150F30F5004730F400F40B1D
:101308008329F50B8329882903300A168A114A266E
:101318000A128A1502300A168A114A260A128A15F2
:1013280002300A168A114A260A128A1508300A1645
:101338008A114A260A128A1500300A168A114A2684
:101348000A128A150C300A168A114A260A128A15B8
:1013580000300A168A114A260A128A1506300A1619
:101368008A114A2608000030FC000030FB000030DB
:10137800FA000030F900730872047104700403194C
:101388000C2AFD01FD0AF31BD7290130F8000310D0
:10139800F00DF10DF20DF30DF80BCB290130FF0024
:1013A8007F08FD07C7290130F8000310F90DFA0D71
:1013B800FB0DFC0DF80BD92973087702031DEE29E4
:1013C80072087602031DEE2971087502031DEE29C5
:1013D80070087402031CFF297008F4027108031CCA
:1013E800710FF5027208031C720FF6027308031CD2
:1013F800730FF702791401300310F30CF20CF10C9F
:10140800F00CFF3E031D002A0130FD02031DD72901
:101418007C08F3007B08F2007A08F1007908F000F4
:101428000800730803191D2A720871047004031D4B
:10143800302A0030F0000030F1000030F2000800DF
:101448000130FF007F08F30701300310F20CF10CA4
:10145800F00CFF3E031D292AFE30720503194B2AA2
:10146800242A0130FF007F08F3070130F00700301D
:1014780003180130F107003003180130F20701307A
:101488000310F20CF10CF00CFF3E031D442AFF3050
:10149800720503195E2A352A02307302031C602A7A
:1014A8000130F30201300310F00DF10DF20DFF3E93
:1014B800031D572AF11F502A7318682AFF30F005B8
:1014C8007F30F105FF30F2050310F30C7308F500C7
:1014D800F601F70110300310F50DF60DF70DFF3E7C
:1014E800031D6F2A7508F0047608F1047708F204E2
:1014F800740803190800F21708003908BD003A08F3
:10150800BE003B08BF0003103E0D3F0DC500450857
:10151800031D972A0030BC000030BB000030BA0021
:101528000030B90008003908BD003A08BE003B0881
:10153800BF0017300310BF0CBE0CBD0CFF3E031DCF
:101548009E2A3D08C000BA17FF30B905FF30BA051A
:101558000030BB053908C1003A08C2003B08C30087
:10156800C4018E30C502C51FCE2A4508803A8F3E79
:10157800031C8E2A01300310C40CC30CC20CC10C0E
:10158800FF3E031DBF2A0130FF007F08C50703196E
:10159800E12ABE2A1830450203188E2A4508031985
:1015A800E12A0130BD000310C10DC20DC30DC40DE9
:1015B800BD0BD72A0130C502D22A40080319EF2AE9
:1015C800C109C209C309C409C10A0319C20A031916
:1015D800C30A0319C40A4408BC004308BB004208F4
:1015E800BA004108B90008007008F6007108F70051
:1015F8007208F8000310770D780DA5002508031D63
:101608000E2B0030F3000030F2000030F100003003
:10161800F00008007308F6007408F7007508F80071
:101628000310770D780DA40024080319052BF11772
:10163800FF30F005FF30F1050030F205F417FF30F8
:10164800F305FF30F4050030F5050030A300003045
:10165800A2000030A1000030A0007F30A502983021
:101668002407F6007608A5021830A4000130F60019
:101678000310A00DA10DA20DA30DF60B3C2B7508B0
:101688007202031D4D2B74087102031D4D2B730844
:101698007002031C5A2B7308F0027408031C740FA1
:1016A800F1027508031C750AF202201401300310B8
:1016B800F00DF10DF20DFF3E031D5B2B0130A4026E
:1016C800031D3A2BA51F7D2B2508803A973E031C46
:1016D800052B01300310A30CA20CA10CA00CFF3E9B
:1016E800031D6E2B0130FF007F08A5070319902BFF
:1016F8006D2B183025020318052B25080319902B8C
:101708000130F6000310A00DA10DA20DA30DF60BDC
:10171800862B0130A502812B2308F3002208F20052
:101728002108F1002008F00008002308A900240877
:10173800AA002508AB0003102A0D2B0DAC002C08BD
:10174800031DAD2B0030A3000030A4000030A5001D
:1017580008002608A9002708AA002808AB000310DB
:101768002A0D2B0DB1003108031DC12B0030A30039
:101778000030A4000030A500080031087B3EFF00BF
:101788007F08AC072508B1002808FF007F08B106CC
:101798008030FF007F08B105A417A717FF30A60502
:1017A800FF30A7050030A8050030AD000030AE00BE
:1017B8000030AF000730B000231CF02B2608AD071F
:1017C800270803110318270A031DAE072808031169
:1017D8000318280A031DAF0701300310A50CA40C39
:1017E800A30CFF3E031DF12B01300310A60DA70D1E
:1017F800A80DFF3E031DF92B0130B002031DE02B9D
:101808000930B000231C162C2608AD072708031141
:101818000318270A031DAE07280803110318280A0E
:10182800031DAF0701300310A50CA40CA30CFF3E49
:10183800031D172C01300310AF0CAE0CAD0CFF3E8E
:10184800031D1F2C0130B002031D062C2D08F000CB
:101858002E08F1002F08F2002C08F3003108F400DC
:101868000A128A15152270088312A3007108A400B1
:101878007208A50008003C08C2003D08C3003E08E5
:10188800C4000310430D440DC7003F08C2004008C0
:10189800C3004108C4000310430D440DC6004708A7
:1018A8000319622C460847020318692C4608C2002F
:1018B8004708C20219304202031C692C3F08BC00C9
:1018C8004008BD004108BE0008004608031908008A
:1018D800470846020318782C4708C2004608C20287
:1018E80019304202031808000630C500BE1BC51790
:1018F800C11B4517BD17FF30BC05FF30BD050030C3
:10190800BE05C017FF30BF05FF30C0050030C10558
:10191800460847020318B62C01300310BF0DC00D4E
:10192800C10DFF3E031D912C0130C6024608470633
:101938000319B12C0130C502450807390319B12C28
:10194800902C01300310BE0CBD0CBC0CFF3E031DD7
:10195800A62C0130FF007F08C70747084606031971
:10196800DF2CA52C470846020318DF2C0130031092
:10197800BC0DBD0DBE0DFF3E031DBB2C0130C702C3
:10198800460847060319DB2C0130C502450807390C
:101998000319DB2CBA2C01300310C10CC00CBF0C8E
:1019A800FF3E031DD02C0130FF007F08C607470803
:1019B8004606031DCF2CC51FF12CFF30BC06FF3097
:1019C800BD06FF30BE060130BC07003003180130E9
:1019D800BD07003003180130BE07451F032DFF3037
:1019E800BF06FF30C006FF30C1060130BF07003018
:1019F80003180130C007003003180130C107C501C2
:101A08003C08BF073D08031103183D0A031DC00722
:101A18003E08031103183E0A031DC107C11F262DE6
:101A2800FF30BF06FF30C006FF30C1060130BF07D8
:101A3800003003180130C007003003180130C10717
:101A4800C501C50A3F08F0004008F1004108F2004E
:101A58004708F3004508F4000A128A151522700891
:101A68008312BC007108BD007208BE000800BB00EC
:101A78006E303B02031CE22D0330A0000A30F60052
:101A88006430F0003B080A168A117F260A128A156C
:101A98000A168A11BF260A128A150A168A112326DF
:101AA8000A128A15433E84000A128A150A200A126D
:101AB8008A15A3000A128A150A200A128A15A40098
:101AC8000A128A150A200A128A15A5000330A000F6
:101AD8006430F6003B080A168A11BF260A128A15D6
:101AE8000A168A1123260A128A155E3E84000A12F3
:101AF8008A150A200A128A15A6000A128A150A20CF
:101B08000A128A15A7000A128A150A200A128A15CB
:101B1800A8000A128A1599230A128A152308B80000
:101B28002408B9002508BA000330A0000A30F000E4
:101B38003B080A168A117F260A128A150A168A1184
:101B480023260A128A15283E84000A128A150A20BA
:101B58000A128A15A3000A128A150A200A128A157F
:101B6800A4000A128A150A200A128A15A500380844
:101B7800A6003908A7003A08A8000A128A1599236E
:101B88000A128A152308B5002408B6002508B700EC
:101B98000030A3000030A4003F30A5003508A6009F
:101BA8003608A7003708A8000A128A1599232308BF
:101BB800B2002408B3002508B40008000B303B022B
:101BC800031C4D2E0330A0000A30F0003B080A1613
:101BD8008A117F260A128A150A168A1123260A12E2
:101BE8008A15283E84000A128A150A200A128A15C4
:101BF800A3000A128A150A200A128A15A4000A12DA
:101C08008A150A200A128A15A5000330A0000A3096
:101C1800F6003B080A168A11BF260A128A150A1608
:101C28008A1123260A128A15433E84000A128A154D
:101C38000A200A128A15A6000A128A150A200A1210
:101C48008A15A7000A128A150A200A128A15A800FE
:101C58000A128A1599230A128A152308B80024083B
:101C6800B9002508BA000030A3000030A4003F30B6
:101C7800A5003808A6003908A7003A08A8000A12E3
:101C88008A1599232308B2002408B3002508B40054
:101C980008000030A3000030A4003F30A500033046
:101CA800A0003B080A168A1123260A128A15283E24
:101CB80084000A128A150A200A128A15A6000A1236
:101CC8008A150A200A128A15A7000A128A150A20FC
:101CD8000A128A15A8000A128A1599232308B20045
:101CE8002408B3002508B4000800FF3083168500D7
:101CF800880187018312870188010A128A155C21ED
:101D08000A128A151F1483161F109F101F119F1186
:101D18009F1783129F121F129F111F151F19922EB2
:101D28001E088316B200B3013208B300B2011E08C0
:101D38003207F8000030031801303307F9000A169B
:101D48008A1162260A128A1578088316AF00790864
:101D5800B0007A08B10049308312A3009D30A40076
:101D68003B30A50083162F088312A600831630087F
:101D78008312A700831631088312A8000A128A1555
:101D880099230A128A1523088316A60083122408A9
:101D98008316A700831225088316A800F401F40A05
:101DA80001300A168A1177270A128A15863083129B
:101DB800CE00831626088312CF00831627088312C5
:101DC800D000831628088312D100B4300A128A1171
:101DD80094230A128A157730F5008030F6000A1627
:101DE8008A113A270A128A150530F40001300A16BA
:101DF8008A1177270A128A15B430F5000030F600E8
:101E08000A168A113A270A128A159F121F129F155D
:101E18001F151F190D2F1E088316B200B3013208B3
:101E2800B300B2011E083207F80000300318013071
:101E38003307F9000A168A1162260A128A157808E9
:101E48008316AC007908AD007A08AE0049308312D9
:101E5800A3009D30A4003B30A50083162C088312F4
:101E6800A60083162D088312A70083162E08831256
:101E7800A8000A128A1599230A128A1523088316BC
:101E8800A300831224088316A4008312250883164E
:101E9800A5000930F40001300A168A1177270A12C2
:101EA8008A1586308312CE00831623088312CF004A
:101EB800831624088312D000831625088312D100C4
:101EC800B4300A128A1194230A128A157C30F5005C
:101ED8008030F6000A168A113A270A128A150D3040
:101EE800F40001300A168A1177270A128A15B430CD
:101EF800F5000030F6000A168A113A270A128A15E8
:101F08009F121F169F111F151F19882F1E08831651
:101F1800B200B3013208B300B2011E083207F8005C
:101F28000030031801303307F9000A168A116226B7
:101F38000A128A1578088316A9007908AA007A086F
:101F4800AB0049308312A3009D30A4003B30A500AC
:101F5800831629088312A60083162A088312A7006D
:101F680083162B088312A8000A128A1599230A12CD
:101F78008A1523088316A000831224088316A1005B
:101F8800831225088316A200F401F40A02300A1607
:101F98008A1177270A128A1586308312CE00831693
:101FA80020088312CF00831621088312D0008316DD
:101FB80022088312D100B4300A128A1194230A121B
:101FC8008A158130F5008030F6000A168A113A2702
:101FD8000A128A150530F40002300A168A1177278A
:101FE8000A128A15B430F5000030F6000A168A1174
:081FF8003A270A128A158D2E0A
:102C0A00720871047004031908008030F206080083
:102C1A0064008001840A04060319003404060E2E97
:102C2A00F100F0013A3071020318212E303071029E
:102C3A00031C212EF001F00A700C0800A200A10169
:102C4A00221C2B2E2008FF007F08A1070310A00DCD
:102C5A000310A20C2208031D252E21080800F000EB
:102C6A00701C392E08163A2E0812F01C3E2E8816B1
:102C7A003F2E8812701D432E0817442E0813F01D8C
:102C8A00482E8817080088130800F30083120313DC
:102C9A00071073080A168A1134260A168A110715AC
:102CAA000630F2003030F100F10B592EF20B592E9A
:102CBA0000008312031307110800FB01F91F6C2E91
:102CCA00F809F909F80A0319F90AFB01FB0A780855
:102CDA00F0007908F100F2018E30F3007B08F4006D
:102CEA000A128A1515227008F8007108F90072088C
:102CFA00FA000800F3000830F400F5017308F10047
:102D0A0007300310F10CFF3E031D862E7508F200F2
:102D1A0072077104F5000310F30D70087502031CA5
:102D2A00982E7008F5020130F402031D832E7508EF
:102D3A000800F401F501701CA82E7208F4070318A4
:102D4A00F50A7308F50701300310F20DF30DFF3E83
:102D5A00031DA92E01300310F10CF00CFF3E031DD8
:102D6A00B02E70087104031DA02E7508F1007408B6
:102D7A00F0000800F700F90176080319DE2EF801C1
:102D8A00F80AF61BCF2E0310F60D0130FF007F085C
:102D9A00F807C62E0310F90D76087702031CD92E00
:102DAA007608F70279140310F60C0130F802031DB5
:102DBA00CF2E79080800F40074080F39F20074085D
:102DCA00F039F30007147308F10004300310F10C12
:102DDA00FF3E031DEB2E71080A168A1134260A16C5
:102DEA008A1107150D30F100F10BF92E8312031326
:102DFA00071172080A168A1134260A168A1107154B
:102E0A000D30F100F10B072F83120313071108008D
:102E1A00F21F1C2F7008003CF0007108031C710F90
:102E2A00003CF1007208031C720F803CF200F51F8F
:102E3A002B2F7308003CF3007408031C740F003C2A
:102E4A00F4007508031C750F803CF5008030F2060B
:102E5A008030F50675087202031D080074087102B5
:102E6A00031D0800730870020800FA01FB017A08C2
:102E7A007507F8007608F7000318F70AFA1BF70334
:102E8A007708F900790883120313FF007808840091
:102E9A000A128A1500200A168A11003A0319080034
:102EAA007A087507F8007608F7000318F70AFA1B7C
:102EBA00F7037708F900790883120313FF007808EB
:102ECA0084000A128A1500200A168A110A168A1123
:102EDA00E0260A168A110130FA070318FB0A0030A5
:102EEA00FB073C2FF6007603031D962F74087F3EDE
:102EFA00F9007908F50004300310F50CFF3E031DB4
:102F0A00812F7508F70079080F39F80077080A1633
:102F1A008A114A260A168A1178080A168A114A2636
:102F2A00080002307606031D08007408BF3EF90047
:102F3A007908F50004300310F50CFF3E031DA02F9D
:102F4A007508F70079080F39F80077080A168A1108
:102F5A004A260A168A1178080A168A114A26080089
:102F6A00F501F31FBF2FF209F309F20A0319F30A55
:102F7A00F501F50AF11FC62FF009F109F00A031944
:102F8A00F10A700871040319F32FF401F40AF11B12
:102F9A00DA2F01300310F00DF10DFF3E031DCF2F84
:102FAA000130FF007F08F407CC2F71087302031D5C
:102FBA00E02F70087202031CE82F7008F2027108F1
:102FCA00031CF303F30201300310F10CF00CFF3E73
:102FDA00031DE92F0130F402031DDA2F75080319C6
:102FEA00FB2FF209F309F20A0319F30A7308F10035
:062FFA007208F00008005F
:02400E00F93F78
:00000001FF
